:100000000C94E6030C940E040C940E040C94E80A71
:100010000C948E210C940E040C940E040C940E047B
:100020000C940E040C94CC2A0C940E040C94FB2A11
:100030000C940E040C940E040C940E040C940E04F8
:100040000C94ED1D0C940E040C94D6200C94E0201E
:100050000C940E040C940E040C940E040C940E04D8
:100060000C9441290C940E04870D900D930D960D60
:10007000990D9C0D9F0D8410841084109B10AE1060
:10008000B710C010C910D210E910F410FD100611FD
:100090000F1120112F113E115111601169117211B0
:1000A0007B118611FC12DD12E81339133913391351
:1000B0005C13DD12DD12E8136613E8136B1387136C
:1000C0009513E813E813E813AC13C013D4134514C5
:1000D0009F140F15BB150F15BB15C6150716072363
:1000E0000A230D2310231323162319231C231F2354
:1000F0002223252328235F26752662266526682667
:100100006B266E267126084AD73B3BCE016E84BC17
:10011000BFFDC12F3D6C74319ABD56833DDA3D0061
:10012000C77F11BED9E4BB4C3E916BAAAABE0000AA
:1001300000803F05A84CCDB2D44EB93836A9020C88
:1001400050B9918688083CA6AAAA2ABE0000008061
:100150003F000D0A4772626C20302E3863205B2707
:10016000242720666F722068656C705D0D0A00247C
:1001700024202876696577204772626C2073657445
:1001800074696E6773290D0A2423202876696577C0
:10019000202320706172616D6574657273290D0A88
:1001A0002447202876696577207061727365722014
:1001B0007374617465290D0A244E20287669657769
:1001C000207374617274757020626C6F636B732935
:1001D0000D0A24783D76616C75652028736176651B
:1001E000204772626C2073657474696E67290D0A0A
:1001F000244E783D6C696E652028736176652073A6
:1002000074617274757020626C6F636B290D0A24BF
:10021000432028636865636B2067636F6465206DA6
:100220006F6465290D0A245820286B696C6C206165
:100230006C61726D206C6F636B290D0A2448202855
:1002400072756E20686F6D696E67206379636C6587
:10025000290D0A7E20286379636C652073746172AE
:1002600074290D0A2120286665656420686F6C6416
:10027000290D0A3F202863757272656E74207374AD
:1002800061747573290D0A6374726C2D782028725D
:1002900065736574204772626C290D0A005D0D0A52
:1002A000002C005B4739323A005D0D0A002C003308
:1002B000303A0032383A0035393A0035383A0035AC
:1002C000373A0035363A0035353A0035343A005B76
:1002D00047005D0D0A00204600205400204D3800E4
:1002E000204D3900204D3500204D3400204D330085
:1002F000204D3200204D3100204D30002047393450
:100300000020473933002047393100204739300079
:100310002047323100204732300020473139002059
:100320004731380020473137002047005B473830DD
:10033000005B4733005B4732005B4731005B47306F
:10034000000D0A003D00244E00000000002500289A
:10035000002B000404040404040404020202020248
:100360000203030303030301020408102040800179
:1003700002040810200102040810200000000800F8
:100380000201000003040700000000000000006FED
:100390006B0D0A003E0D0A002C0057506F733A0097
:1003A0002C002C4D506F733A003C436865636B0022
:1003B0003C416C61726D003C486F6D65003C486F5C
:1003C0006C64003C52756E003C5175657565003C6F
:1003D00049646C65005D0D0A0044697361626C6577
:1003E0006400456E61626C65640043617574696F99
:1003F0006E3A20556E6C6F636B6564002724482746
:100400007C2724582720746F20756E6C6F636B00F7
:10041000526573657420746F20636F6E74696E75B6
:1004200065005B002E204D506F733F0D0A00416246
:100430006F727420647572696E67206379636C658E
:100440000048617264206C696D697400414C4152CE
:100450004D3A20002028686F6D696E672070756CBA
:100460006C2D6F66662C206D6D290D0A00202868A2
:100470006F6D696E67206465626F756E63652C20B1
:100480006D736563290D0A2432323D002028686FA0
:100490006D696E67207365656B2C206D6D2F6D69BE
:1004A0006E290D0A2432313D002028686F6D696E77
:1004B0006720666565642C206D6D2F6D696E290D52
:1004C0000A2432303D00290D0A2431393D0020280C
:1004D000686F6D696E672064697220696E766572F7
:1004E00074206D61736B2C20696E743A002028684B
:1004F0006F6D696E67206379636C652C20626F6F26
:100500006C290D0A2431383D00202868617264206E
:100510006C696D6974732C20626F6F6C290D0A24ED
:1005200031373D002028696E7665727420737465DA
:100530007020656E61626C652C20626F6F6C290D96
:100540000A2431363D0020286175746F2073746170
:1005500072742C20626F6F6C290D0A2431353D00B6
:1005600020287265706F727420696E636865732CE1
:1005700020626F6F6C290D0A2431343D0020286EF3
:100580002D646563696D616C732C20696E74290D2F
:100590000A2431333D0020286E2D61726320636F81
:1005A0007272656374696F6E2C20696E74290D0A0E
:1005B0002431323D0020286172632C206D6D2F7331
:1005C00065676D656E74290D0A2431313D00202860
:1005D0006A756E6374696F6E2064657669617469AB
:1005E0006F6E2C206D6D290D0A2431303D002028BE
:1005F000616363656C65726174696F6E2C206D6DEB
:100600002F7365635E32290D0A24393D002028735B
:100610007465702069646C652064656C61792C2058
:100620006D736563290D0A24383D00290D0A2437AE
:100630003D0020287374657020706F727420696E9D
:1006400076657274206D61736B2C20696E743A004C
:10065000202864656661756C74207365656B2C2059
:100660006D6D2F6D696E290D0A24363D00202864BA
:10067000656661756C7420666565642C206D6D2FF0
:100680006D696E290D0A24353D002028737465704C
:100690002070756C73652C2075736563290D0A24B1
:1006A000343D0020287A2C20737465702F6D6D29DD
:1006B0000D0A24333D002028792C20737465702F97
:1006C0006D6D290D0A24323D002028782C2073748A
:1006D00065702F6D6D290D0A24313D0024303D00D9
:1006E0000D0A00416C61726D206C6F636B00427586
:1006F0007379206F7220717565756564004545508A
:10070000524F4D2072656164206661696C2E2055E0
:1007100073696E672064656661756C7473005661F9
:100720006C7565203C203320757365630056616CE1
:100730007565203C20302E300053657474696E67F7
:100740002064697361626C656400496E76616C69EE
:10075000642073746174656D656E74004D6F6461BF
:100760006C2067726F75702076696F6C6174696F49
:100770006E00496E76616C6964207261646975739C
:1007800000556E737570706F727465642073746158
:1007900074656D656E74004578706563746564207A
:1007A000636F6D6D616E64206C6574746572004278
:1007B0006164206E756D62657220666F726D617422
:1007C000006572726F723A2000004A2F11241FBE1A
:1007D000CFEFD8E0DEBFCDBF11E0A0E0B1E0E4E8AC
:1007E000F9E602C005900D92A231B107D9F727E0D2
:1007F000A2E1B1E001C01D92A03EB207E1F713E013
:10080000C6EED3E004C02197FE010E949B34C53E92
:10081000D107C9F70E940E2F0C94C0340C9400002D
:1008200084B1817F84B985B18E6085B980913A01A8
:1008300083FF09C080916B008E6080936B00809174
:100840006800816008C080916B00817F80936B009D
:10085000809168008E7F809368000895611571050E
:1008600081059105C1F16A3071058105910548F452
:1008700025E02A95F1F7000061507109810991097D
:10088000EDCF643671058105910548F4E5E3EA95FD
:10089000F1F700006A50710981099109DFCF683EC4
:1008A000F3E07F078105910558F4EFE8F1E0319717
:1008B000F1F700C000006456710981099109CECF9B
:1008C000EFE9FFE03197F1F700C00000685E734088
:1008D00081099109C3CF08952F923F924F925F9261
:1008E0006F927F928F929F92AF92BF92CF92DF9240
:1008F000EF92FF920F931F93CF93DF93CDB7DEB7A5
:10090000E1970FB6F894DEBF0FBECDBF282E6D87DE
:10091000342E098B1A8B2B8B3C8BFE0131968CE08D
:10092000DF011D928A95E9F720FE10C06091170142
:10093000709118018091190190911A010E943D3324
:1009400069837A838B839C8311E001C010E021FED0
:100950000FC01F5F60911B0170911C0180911D01F0
:1009600090911E010E943D336D837E838F83988713
:1009700022FE0FC01F5F60911F01709120018091C6
:100980002101909122010E943D3369877A878B87EC
:100990009C8749815A816B817C818D819E81AF8149
:1009A000B88584179507A607B70710F4DB01CA01BD
:1009B00049855A856B857C856C017D018417950777
:1009C000A607B70710F46A017B01612F70E080E091
:1009D00090E00E9419310E940F342B013C01C701A5
:1009E000B6010E941931A30192010E9471304B019E
:1009F0005C012091320130913301409134015091DA
:100A000035010E94703320E030E84BE355E40E944A
:100A100071300E9450300E94EA3069A37AA38BA300
:100A20009CA3A301920169897A898B899C890E9480
:100A300070339B01AC01C501B4010E9470339B016E
:100A4000AC0160EC71EE84E69CE40E9471300E947F
:100A50003D334B015C01683FB4E27B07B1E08B079B
:100A6000910518F49B01AC0104C028EF34E241E089
:100A700050E010913B01107E80912D0118274D848C
:100A8000411002C080EE1827260137017694679442
:100A90005794479488279927DC0184199509A6095A
:100AA000B7098EA79FA7A8ABB9AB60912401290114
:100AB0003A01461A5108610871084D8E5E8E6F8E9C
:100AC00078A28D8B9E8BAF8BB88F898B9A8BAB8BDB
:100AD000BC8B70E1472E77E2572E612C712C4D862E
:100AE0005E866F86788A198E1A8E1B8E1C8E84E025
:100AF00081278DA300E173B1332019F09EE0592EB8
:100B0000752520FE28C089819A81AB81BC814EA4C5
:100B10005FA468A879A8840D951DA61DB71D8EA792
:100B20009FA7A8ABB9AB181619061A061B069CF4AA
:100B300071FF02C06DA104C0622D6E7F262E612F51
:100B40002C013D014C185D086E087F084EA65FA67B
:100B500068AA79AA01C0612F21FE2EC08D819E81D5
:100B6000AF81B88549885A886B887C88840D951D2B
:100B7000A61DB71D8AA79BA7ACA7BDA7898B9A8B7B
:100B8000AB8BBC8B181619061A061B06ACF472FF49
:100B900004C088E0582E652503C0822D8D7F282E45
:100BA0004AA45BA46CA47DA44C185D086E087F0861
:100BB000498A5A8A6B8A7C8A22FE2CC089859A854A
:100BC000AB85BC854D885E886F88788C840D951DBB
:100BD000A61DB71D8AA79BA7ACA7BDA78D8B9E8B13
:100BE000AF8BB88F181619061A061B06B4F473FFDC
:100BF00002C0602703C0822D8B7F282E4AA45BA4ED
:100C00006CA47DA44C185D086E087F084D8A5E8A2E
:100C10006F8A788E222009F46FC080914F0184FD85
:100C20006BC08BB16C71837E682B6BB960912401B2
:100C300070E080E090E02EA33FA348A759A70E9450
:100C40002E041BB96D8D7E8D8F8D98A10E942E0470
:100C50002EA13FA148A559A582169306A406B50664
:100C600008F049CF4D845E846F847888420E531E0D
:100C7000641E751E4D865E866F86788A61E2461612
:100C80006EE456066104710408F435CFD301C20145
:100C900080529E44A109B1098D879E87AF87B88B8A
:100CA000498C5A8C6B8C7C8C29A13AA14BA15CA1FC
:100CB000420E531E641E751E498E5A8E6B8E7C8E9C
:100CC00060E077E883E993E0A30192010E94793420
:100CD000281539054A055B0510F4A50194016091BA
:100CE000240129013A01461A5108610871084D8E04
:100CF0005E8E6F8E78A2FFCEE1960FB6F894DEBFBF
:100D00000FBECDBFDF91CF911F910F91FF90EF905C
:100D1000DF90CF90BF90AF909F908F907F906F901B
:100D20005F904F903F902F900895009741F0EFE92A
:100D3000FFE03197F1F700C000000197F6CF08956A
:100D400080914F0184FD13C080914F018061809399
:100D50004F012C98439880914E018350833038F492
:100D600080914F01806280934F010C94E32A089593
:100D70002F923F924F925F926F927F928F929F92AB
:100D8000AF92BF92CF92DF92EF92FF920F931F9399
:100D9000CF93DF93CDB7DEB7E5970FB6F894DEBFFC
:100DA0000FBECDBF29013A01E982FA820B831C8371
:100DB000A98ABA8ACB8ADC8A8D8E20914E0127308F
:100DC00009F4EDC36AAB7BAB8CAB9DAB0E94E32512
:100DD00020914D016AA97BA98CA99DA92111DFC38E
:100DE0002091AC063091140139AB231759F32091AF
:100DF000AD06222E312C209117013091180140911F
:100E0000190150911A012D833E834F8358870E9408
:100E100070330E943D336DA37EA38FA398A780916A
:100E20001B0190911C01A0911D01B0911E018987A9
:100E30009A87AB87BC879C01AD01C301B2010E94B8
:100E400070330E943D3369A77AA78BA79CA7209196
:100E50001F013091200140912101509122012D87E5
:100E60003E874F87588B69817A818B819C810E9454
:100E700070330E943D336DA77EA78FA798AB8BE39D
:100E8000829DF001839DF00D1124EA57FD4F1082E1
:100E90008091660190916701A0916801B09169010C
:100EA0002DA13EA14FA158A5281739074A075B0776
:100EB00014F420E22083C0906A01D0906B01E0908E
:100EC0006C01F0906D0129A53AA54BA55CA52C15E8
:100ED0003D054E055F055CF42BE3229DF001239D4B
:100EE000F00D1124EA57FD4F2081206420834090AB
:100EF0006E0150906F0160907001709071012DA58E
:100F00003EA54FA558A924153505460557055CF49F
:100F10002BE3229DF001239DF00D1124EA57FD4F94
:100F20002081206820834DA15EA16FA178A5481B78
:100F3000590B6A0B7B0B8A019B0177FF07C00027C7
:100F400011279801041B150B260B370BEBE3E29DD1
:100F5000C001E39D900D1124FC01EA57FD4F018370
:100F600012832383348389A49AA4ABA4BCA48C18D1
:100F70009D08AE08BF088D8A9E8AAF8AB88EB7FEDC
:100F80000BC088279927DC0188199909AA09BB0990
:100F90008D8B9E8BAF8BB88FEBE3E29D7001E39D51
:100FA000F00C1124F701EA57FD4F8D899E89AF8916
:100FB000B88D85839683A783B087CDA4DEA4EFA4E4
:100FC000F8A8C418D508E608F70826013701F7FE87
:100FD00007C04424552432014C185D086E087F0870
:100FE0009BE3929DD001939DB00D1124FD01EA5722
:100FF000FD4F41865286638674868D899E89AF89AE
:10100000B88D80179107A207B30710F4D901C80162
:1010100089839A83AB83BC8384159505A605B705A0
:1010200020F449825A826B827C822BE3229DC0018C
:10103000239D900D1124DC01AA57BD4F3D018981EC
:101040009A81AB81BC81F30185879687A787B08B96
:10105000892B8A2B8B2B09F41CC2CB01BA010E946D
:101060001B312D813E814F8158850E9471306D8BDF
:101070007E8B8F8B988FC501B4010E941B3129850F
:101080003A854B855C850E947130698F7A8F8B8F92
:101090009C8FC701B6010E941B312D853E854F856F
:1010A00058890E9471304B015C012D893E894F891E
:1010B000588DCA01B9010E9470336B017C01298DE2
:1010C0003A8D4B8D5C8DCA01B9010E9470339B0132
:1010D000AC01C701B6010E94722F6B017C01A50112
:1010E0009401C501B4010E9470339B01AC01C7019A
:1010F000B6010E94722F0E940F3469A37AA38BA3BA
:101100009CA3D3015D966D937D938D939C93909753
:101110009B01AC0160E070E080E89FE30E947130C9
:101120002B013C01BD8DB11109C09B01AC01698946
:101130007A898B899C890E9470330AC029893A89EF
:101140004B895C8960E070E080E89FE30E94713029
:101150006B017C019B01AC0169A17AA18BA19CA1CF
:101160000E9470336D8379878D87998B8BE3829D85
:101170008001839D100D11240A571D4FCB01AD85B1
:10118000B989F801818B928BA38BB48B69817A81A9
:101190008B819C810E941B316D8F7E8F8F8F98A3D6
:1011A000A70196010E9470330E9450300E94EA30DD
:1011B000D801D7966D937D938D939C93DA97209168
:1011C000320130913301409134015091350129832E
:1011D0003A834B835C83A30192016D8D7E8D8F8D4D
:1011E00098A10E94703329813A814B815C810E94D1
:1011F000703320E030E84BE355E40E9471300E94E8
:1012000050300E94E330D8019B966D937D938D936F
:101210009C939E97A30192016D897E898F89988DF9
:101220000E9470336D8B7E8B8F8B988FA301920100
:10123000698D7A8D8B8D9C8D0E947033698F7A8F2A
:101240008B8F9C8FA3019201C501B4010E94703362
:101250002B013C019091AD068091AC06981709F4E2
:1012600057C0C0907E01D0907F01E0908001F09047
:10127000810120E030E0A901B601C7010E94893256
:1012800018160CF045C08091720190917301A091E5
:101290007401B0917501BC01CD0190582D893E8932
:1012A0004F89588D0E9470334B015C01209176016B
:1012B000309177014091780150917901698D7A8D53
:1012C0008B8D9C8D0E9470339B01AC01C501B401D4
:1012D0000E94712F4B015C0120917A0130917B01BA
:1012E00040917C0150917D01C301B2010E94703395
:1012F0009B01AC01C501B4010E94712F4B015C013F
:1013000023E333E343E75FE30E94673087FDE7C0F1
:10131000C12CD12CE12CF12C8BE3829DF001839D1B
:10132000F00D1124EA57FD4FC601D701818F928F2E
:10133000A38FB48F69817A818B819C8190589B01A6
:10134000AC010E94722F29A13AA14BA15CA10E947D
:1013500070339B01AC0160E070E0CB010E94712F03
:101360000E940F344B015C019B01AC01B601C70127
:101370000E94673087FD02C0640175018BE3829D86
:101380008001839D100D11240A571D4FC601D701FE
:10139000F801858B968BA78BB08F9401A5016D8189
:1013A00079858D8599890E94673018162CF081E027
:1013B000D80192968C9302C0F80112A28BE3829D11
:1013C000F001839DF00D1124EA57FD4F81E081A3C8
:1013D0002D893E894F89588D209372013093730176
:1013E0004093740150937501898D9A8DAB8DBC8D9E
:1013F0008093760190937701A0937801B09379015F
:1014000040927A0150927B0160927C0170927D0142
:101410008D819985AD85B98980937E0190937F01F7
:10142000A0938001B093810199A99093AD0680911A
:10143000AD068F5F823109F480E0809314012DA105
:101440003EA14FA158A520936601309367014093B8
:1014500068015093690189A59AA5ABA5BCA58093A5
:101460006A0190936B01A0936C01B0936D012DA55F
:101470003EA54FA558A920936E0130936F0140936C
:101480007001509371010E9437250E94F5240E943B
:101490006C2480914E01811103C082E080934E0143
:1014A00080915C01882309F47AC0E5960FB6F89420
:1014B000DEBF0FBECDBFDF91CF911F910F91FF9087
:1014C000EF90DF90CF90BF90AF909F908F907F90E4
:1014D0006F905F904F903F902F900C942A2E2D810B
:1014E00039854D855989B601C7010E94673087FD4E
:1014F00004C0CD80D984ED84F98823E333E343E746
:101500005FEBC501B4010E94893218160CF004CFBC
:10151000A501940160E070E080E89FE30E94712FD4
:1015200020E030E040E05FE30E9470330E940F341F
:101530004B015C0120913601309137014091380117
:101540005091390169817A818B819C810E9470332D
:10155000A50194010E9470336D8F7E8F8F8F98A3A9
:10156000A501940160E070E080E89FE30E94712F84
:101570009B01AC016D8D7E8D8F8D98A10E94713085
:101580000E940F344B015C019B01AC01B601C70105
:101590000E94673087FDC0CE64017501BDCEE5961F
:1015A0000FB6F894DEBF0FBECDBFDF91CF911F9174
:1015B0000F91FF90EF90DF90CF90BF90AF909F90F2
:1015C0008F907F906F905F904F903F902F900895F5
:1015D0001F920F920FB60F9211242F933F934F93A8
:1015E0005F936F937F938F939F93AF93BF93EF938B
:1015F000FF9380914E01863059F080914F0185FD17
:1016000007C00E94A00680914F01806480934F0123
:10161000FF91EF91BF91AF919F918F917F916F91CA
:101620005F914F913F912F910F900FBE0F901F90A0
:1016300018958F929F92AF92BF92CF92DF92EF92C6
:10164000FF920F931F93CF935B014A017C01E40E3D
:10165000F51E8C01C0E06B01C81AD90A0E151F05D2
:10166000B9F0C601800F911F0E945B2F2C2F30E034
:101670002115310531F4220F232F221F330B217046
:1016800001C021E0C22FC80FF80181938F01E6CF7E
:10169000C501880D991D0E945B2F21E030E0C8171D
:1016A00011F020E030E0C901CF911F910F91FF9020
:1016B000EF90DF90CF90BF90AF909F908F90089564
:1016C0008F929F92AF92BF92CF92DF92EF92FF9252
:1016D0000F931F93CF936C018B014A015B01A40E02
:1016E000B51E7C01C0E00A151B05C1F02C2F30E0AF
:1016F0002115310531F4220F232F221F330B2170C6
:1017000001C021E0F80161918F01C22FC60FC7010E
:101710000E94632FFFEFEF1AFF0AE5CF6C2FC6017F
:10172000880D991DCF911F910F91FF90EF90DF9041
:10173000CF90BF90AF909F908F900C94632FCF93DA
:10174000DF93CDB7DEB769970FB6F894DEBF0FBE53
:10175000CDBF86EE8093BA0084E898E29093EA06C3
:101760008093E90680E998E29093EC068093EB067B
:101770001092D6061092D5061092DA061092D9066B
:101780001092ED0681E08093EF061092EE0682E162
:101790000E94A71D83E10E94A71D8091B9008E7F42
:1017A0008093B9008091B9008D7F8093B90088E45F
:1017B0008093B80085E48093BC0088E191E2909327
:1017C000D8068093D70687E39EE19093DC0680934A
:1017D000DB06509851980E94A31D853061F446E3C2
:1017E00050E061E070E087E191E00E94190B892BE5
:1017F00009F4D6C511C0853008F0D2C543E250E0E7
:1018000061E070E087E191E00E94190B892B09F4F7
:10181000C7C580E00E94162010E0BE016F5F7F4FB9
:10182000812F0E94B520811103C08AE00E94F62218
:101830001F5F183091F78AB18C6F8AB98BB18370B2
:1018400090912D01892B8BB9209A809181008F7EF8
:1018500080938100809181008860809381008091D5
:1018600080008D7F80938000809180008E7F8093A8
:101870008000809180008F73809380008091800031
:101880008F7C809380001092B0001092B100809104
:1018900070008160809370000E940E2E0E94E32AE7
:1018A000789480E1EDE4F1E0DF011D928A95E9F79B
:1018B00081E080934D0180934E0180914D018823FA
:1018C00009F4A0C080910302809302028091AD06CA
:1018D0008093AC068091AD068F5F823109F480E081
:1018E000809314018CE1E6E6F1E011928A95E9F724
:1018F00085E3E9E7F7E0DF011D928A95E9F780913A
:10190000250190912601A0912701B0912801809393
:10191000810790938207A0938307B093840781E0A7
:101920008093930792E09093940780937D0766E9F4
:1019300077E080E00E94B520811103C08AE00E9418
:10194000F622109213011092120182E591E00E949A
:10195000E72287B1887F87B988B1876088B980918D
:101960006C00876080936C00809168008260809337
:10197000680010921501249A259A2C98109216014D
:101980003B9A43980E94100484E2E1EBF6E0DF0109
:101990001D928A95E9F760E273E080E090E00E9492
:1019A0006F2A1092AF061092AE061092B0060E94F7
:1019B000EE2710924D0110924F0180913A0181FF64
:1019C00003C091E090935C0190914E01913029F415
:1019D00084FF03C086E080934E0180914E018630E3
:1019E00069F482E294E00E94E7228CEF93E00E9487
:1019F000E72285ED93E00E94E72204C010924E0199
:101A00000E9440240E94E3253324339462E0962E02
:101A100077E0272E9091020280910302891709F442
:101A20004CCFE92FF0E0EE57FE4F80819F5F90385A
:101A300019F09093020202C0109202028F3F09F443
:101A40003CCF8A3019F08D3009F081C40E94E32523
:101A500080914D01811131CFE0911301EE2309F402
:101A60006CC4F0E0E255F84F10828091AE078432EA
:101A700009F05FC4398A8091AF07833409F481C1CA
:101A80004CF4833201F18432A1F08111CDC28FE692
:101A900091E074C1883409F4B0C124F4873409F4A6
:101AA000ABC0C2C28E3409F489C2883509F48CC136
:101AB000BBC2998A8091B007882311F083E042C4A9
:101AC0000E9431233AC4998A8091B0078111F6CFE0
:101AD00010E0BE016F5F7F4F812F0E94B520811102
:101AE00004C08AE00E94F62228C48FEC92E00E9493
:101AF000E722412F50E0FA013197E730F10520F459
:101B0000EC5CFF4F0C949B348BEC92E002C087ECB2
:101B100092E00E94E722FE0131967F0100E025C09D
:101B200083EC92E0F6CF8FEB92E0F3CF8BEB92E079
:101B3000F0CF87EB92E0EDCF83EB92E0EACF8FEA34
:101B400092E0E7CFF70160817181828193810E94E9
:101B5000CA210230D1F08DEA92E00E94E7220F5FA5
:101B6000F4E0EF0EF11C033099F080913A0180FF10
:101B7000E9CF2BE832E441E25DE3D7016D917D913D
:101B80008D919C910E947033E2CF89EA92E0E5CF7B
:101B90001F5F183009F09DCF83EA92E00E94E72290
:101BA00052EAE52E57E0F52E10E080913A0180FFD1
:101BB0000CC02BE832E441E25DE3D7016D917D91E9
:101BC0008D919C910E94703305C0F70160817181F5
:101BD000828193810E94CA21123019F081EA92E039
:101BE00002C08DE992E00E94E7221F5FF4E0EF0E51
:101BF000F11C1330D1F6A1C3998A8091B0078111ED
:101C00005DCF80917A07823091F038F4882361F0BB
:101C10008130A1F489E393E00FC0833059F0843020
:101C200069F48CE293E008C08DE393E005C085E39E
:101C300093E002C081E393E00E94E72289E293E00F
:101C40000E94E7226091950770E06A5C7F4F072E43
:101C5000000C880B990B0E947322809192078111CE
:101C60000AC080919307813019F484E293E005C0A3
:101C70008FE193E002C08AE193E00E94E722809125
:101C80007C07882319F085E193E002C080E193E0AE
:101C90000E94E72280917D07882319F08BE093E072
:101CA00002C086E093E00E94E72280917B078823B0
:101CB00019F081E093E002C08CEF92E00E94E722ED
:101CC00080917E07813049F028F0823051F480EF16
:101CD00092E005C088EF92E002C084EF92E00E949B
:101CE000E72280917F07882351F0813029F08F3FD0
:101CF00051F488EE92E005C08CEE92E002C084EED2
:101D000092E00E94E72280918007882329F08130A9
:101D100039F48CED92E002C080EE92E00E94E7225E
:101D200089ED92E00E94E7226091910770E080E0E7
:101D300090E00E94732286ED92E00E94E72280915B
:101D40007C07882379F02BE832E441E25DE360917F
:101D500081077091820780918307909184070E9488
:101D6000703308C06091810770918207809183076A
:101D7000909184070E94CA2182ED92E00E94E7229E
:101D8000DCC2998A8091B007811198CE80914E0172
:101D9000873049F40E94A00682E294E00E94E72284
:101DA00089ED93E00CC0882311F08BE0CBC2209228
:101DB0004E0182E294E00E94E72282EE93E00E94CC
:101DC000E72285ED93E0DACF998A8091B0078111FF
:101DD00075CE80914E01863009F0AFC282E294E068
:101DE0000E94E7228AEE93E00E94E72285ED93E0CD
:101DF0000E94E72210924E01A0C280913A0184FF16
:101E000090C280914E01882311F0863071F685E0F2
:101E100080934E0180916B00817F80936B000E94C4
:101E20000E2E00914001109141012091420130910C
:101E3000430140E061E084E00E946C0400914001B5
:101E400010914101209142013091430140E061E055
:101E500083E00E946C0480914401909145010E94AE
:101E6000950642E0F42EFA948FEFF81651F10091A6
:101E70003C0110913D0120913E0130913F0141E034
:101E800060E087E00E946C048091440190914501DC
:101E90000E94950621E0F212E6CF00913C011091DC
:101EA0003D0120913E0130913F0140E061E087E03B
:101EB0000E946C0480914401909145010E94950616
:101EC000D2CF0E94E32A0E94E32580914D01811127
:101ED0006EC08CE0A0E5B1E01D928A95E9F70E9402
:101EE000EE2710924E0180913B0185FD02C01FEF4D
:101EF00001C011E086FD02C00FEF01C001E087FDC7
:101F000002C06FEF01C061E0409046015090470170
:101F10006090480170904901A0904001B09041014B
:101F2000C0904201D0904301062E000C770B880B25
:101F3000990B0E941B31A30192010E9470336A8B9E
:101F40007B8B8C8B9D8B602F000F770B880B990BF5
:101F50000E941B31A30192010E9470336E8B7F8B14
:101F6000888F998F612F110F770B880B990B0E9427
:101F70001B31A30192010E947033812CEA88FB88F7
:101F80000C891D892E893F89488D598D0E94B8067C
:101F90000E942A2E0E94D0270E94EE2780913A01AB
:101FA00083FF05C080916B008E6080936B008091F1
:101FB0004D018111C2C10E944024BFC1998A809104
:101FC000B007811133C0C12CD12C76018C2D0E9419
:101FD000831D811104C08AE00E94F6221AC086E4A3
:101FE00093E00E94E722C701B6010E94732284E4B5
:101FF00093E00E94E7220EEA17E0F80181918F0139
:10200000882319F00E940A21F8CF81E493E00E940E
:10201000E722CA94CD28CE28CF2809F48EC1C12C3E
:10202000D12C7601C394D2CF10E001C011E0BE01E3
:10203000635F7F4FCE0141960E94342E892B11F4AD
:1020400081E080C1E98981E08E0F898BF0E0E25563
:10205000F84F90819D3309F031CD112359F1482F6C
:1020600050E0282F30E0D901A255B84F9C91241B95
:10207000350BF901E255F84F90838F5F9C919111D8
:10208000F0CF898B0E940612811155C16D857E8526
:102090008F8598890E9453340E94EA3023E3629F1F
:1020A000C001112442E350E06EEA77E09D5F0E9498
:1020B000600B43C1BE016F5F7F4FCE0141960E940E
:1020C000342E892B09F4BCCFE989F0E0E255F84FB2
:1020D00080818111F3CCC980DA80EB80FC806D8532
:1020E0007E858F8598890E94E3302B013C01CB01CE
:1020F000770FAA0BBB0B8731910508F014C1FC01C7
:10210000E55CFF4F0C949B3420E030E0A901C7014F
:10211000B6010E94673018160CF007C1C201880F83
:10212000991F880F991FFC01E95EFE4FC082D18282
:10213000E282F382F3C020E030E040E450E4C701E3
:10214000B6010E94673087FDF2C0C701B6010E9448
:10215000DD330E94EA3060932401E0C0C092250183
:10216000D0922601E0922701F0922801D7C0C092B8
:102170002901D0922A01E0922B01F0922C01CEC0CD
:10218000C701B6010E9453340E94EA3060932D01CA
:10219000C5C0C701B6010E94DD330E94EA306093DA
:1021A0004A01BCC020E030E040E752E4C701B6017C
:1021B0000E94703320E030E040E752E40E94703328
:1021C0006093320170933301809334019093350111
:1021D000A5C0E894F7F8C0923601D0923701E0929A
:1021E0003801F09239019AC0C0922E01D0922F018D
:1021F000E0923001F092310191C0C701B6010E9416
:10220000DD330E94EA3060934C0188C0C701B601FB
:102210000E94DD330E94EA3060934B017FC020E0D2
:1022200030E0A901C701B6010E94673090913A01E0
:10223000882311F0916001C09E7F90933A016EC097
:1022400020E030E0A901C701B6010E9467309091FB
:102250003A01882311F09260F0CF9D7FEECF20E00D
:1022600030E0A901C701B6010E94673090913A01A0
:10227000882311F09460E1CF9B7FDFCF20E030E036
:10228000A901C701B6010E94673090913A018823E5
:1022900011F0986001C0977F90933A010E9410045A
:1022A0003DC020E030E0A901C701B6010E946730BF
:1022B00090913A01882311F09061BFCF9F7EBDCFEE
:1022C000C701B6010E9453340E94EA3060933B017B
:1022D00025C0C0923C01D0923D01E0923E01F092B7
:1022E0003F011CC0C0924001D0924101E0924201E6
:1022F000F092430113C0C701B6010E94DD330E9472
:10230000EA30709345016093440108C0C0924601D1
:10231000D0924701E0924801F09249010E940920C1
:102320000CC087E00FC086E00DC088E00BC089E0DC
:1023300009C00E940612811105C08FE893E00E9437
:10234000E72202C00E94F6221092130107C090916A
:102350001201992331F0893209F05CCB10921201FD
:1023600059CB813208F456CB8F3209F453CB8832E3
:1023700019F4309212014ECB20911301213308F051
:1023800049CB41E0420F30E09FE9980F40931301A1
:10239000F901E255F84F9A3108F4805280833ACB24
:1023A0008AE00E94F62281E00E9416200E943123DA
:1023B00033CACF92DF92EF92FF920F931F93CF9386
:1023C000DF936C017A018B01C0E0D0E0CE15DF0510
:1023D00089F0D8016D918D01D601ED91FC910190AC
:1023E000F081E02DC6010995892B11F47E0102C010
:1023F0002196ECCFC701DF91CF911F910F91FF90F4
:10240000EF90DF90CF9008950E94BB342F923F92BF
:102410004F925F926F927F928F929F92AF92BF92F4
:10242000CF92DF92EF92FF920F931F93CF93DF93A0
:10243000CDB7DEB7CB55D1090FB6F894DEBF0FBECE
:10244000CDBF80914E01863009F49DC71AA61E01AA
:1024500029E1220E311C8CE0D101E82F1D92EA9572
:10246000E9F7FE013D96DF011D928A95E9F710928A
:1024700079071BA6712C412C512CCC24C394D12C50
:10248000B5E06B2E12E0F12E01E083E0E82EAE0104
:10249000465D5F4FBE016B5D7F4FCE0189960E9406
:1024A000E72E892B09F472C08DA09EA0AFA0B8A41E
:1024B000C501B4010E9453340E94E330CB0129A529
:1024C000273421F02D3409F44CC0E1CF6E31710571
:1024D00009F46FC7ECF46431710594F4613171054E
:1024E000C4F56430710509F464C72CF477FD02C0AB
:1024F0000C94D71A4AC76A30710509F45AC745C700
:102500006631710554F16C31710509F03EC751C750
:102510006C357105A4F46A357105ECF46C33710502
:1025200044F466337105DCF46533710509F441C781
:102530002CC76035710511F40C94D71A26C76C3579
:10254000710509F436C76F3571050CF01EC716E02A
:1025500031C713E02FC714E02DC717E02BC719E0D0
:1025600029C7663071055CF46330710514F00C9472
:10257000311B77FF02C00C946B1B0C942F1B6E3128
:10258000710511F40C942F1B0C946B1B809179072F
:1025900081110C94691D1AA600E01CA61DA61EA69A
:1025A0001FA6812C912C54011CAE1DAE50E85EAFCD
:1025B0008FEB8FAF10E0F6E06F2EAE01465D5F4F00
:1025C000BE016B5D7F4FCE0189960E94E72E892B5D
:1025D00009F407C1E9A48E2D0E2C000C990BAA0B4F
:1025E000BB0BFC01E654F109E531F10508F0F0C040
:1025F000EE5AFF4F0C949B34CDA0DEA0EFA0F8A4C0
:1026000020E030E0A901B601C7010E94673018162A
:1026100014F06092790790917B0780917C07992351
:1026200081F0882309F4D8C023E333E34BEC51E471
:10263000B601C7010E9470336CAF7DAF8EAF9FAF04
:10264000BCCF882351F023E333E34BEC51E4B601D4
:10265000C7010E9470336B0101C0C701A601BC0114
:102660004093810750938207609383077093840798
:10267000A4CF0E2C000CFF0899E4E91AF1086DA113
:102680007EA18FA198A520917C07222331F023E31E
:1026900033E34BEC51E40E947033EE0CFF1CEE0C64
:1026A000FF1CE1E0F0E0EC0FFD1FEE0DFF1D648765
:1026B00075878687978781CF6DA17EA18FA198A509
:1026C0000E9453340E94EA30062F77CF8DA09EA03F
:1026D000AFA0B8A472CF2DA13EA14FA158A52CA7A1
:1026E0003DA74EA75FA780917C07882309F465CF9B
:1026F00023E333E34BEC51E46CA57DA58EA59FA5A8
:102700000E9470336CA77DA78EA79FA756CF20E0AD
:1027100030E0A9016DA17EA18FA198A50E9467302C
:1027200087FF4BCF6092790748CFCDA0DEA0EFA006
:10273000F8A420E030E0A901C701B6010E9467308B
:1027400087FD60927907C701B6010E9453340E9449
:10275000EA306093910731CF6DA17EA18FA198A53A
:1027600020917C07222331F023E333E34BEC51E447
:102770000E947033698F7A8F8B8F9C8F11601DCF71
:102780006DA17EA18FA198A520917C07222331F015
:1027900023E333E34BEC51E40E9470336D8F7E8F63
:1027A0008F8F98A3126009CF6DA17EA18FA198A5EC
:1027B00020917C07222331F023E333E34BEC51E4F7
:1027C0000E94703369A37AA38BA39CA31460F5CEF7
:1027D00033E030937907F1CECCAEDDAEEEAEFFAE96
:1027E000ECCE8091790781110C94691D80914E0186
:1027F000873049F1F0907F072F2D0F2C000C330B01
:102800008091150190E02817390769F00E94D027C0
:10281000FF2031F014F02D9801C02D9A2C9A01C0A0
:102820002C98F0921501F090800780911601F8160F
:1028300051F00E94D02741E0F41202C0439A01C037
:102840004398F092160151FE13C0BE016F5F7F4F97
:10285000809195070E94B520882309F4E0C18CE09F
:10286000FE013196A6E9B7E001900D928A95E1F755
:102870005BA5852F90E0FC013197E830F10508F069
:10288000D0C1E959FF4F0C949B3420E030E0A901FE
:10289000C501B4010E94673087FF04C086E08093C1
:1028A0007907BFC180914E01873009F4BAC120E099
:1028B00030E040EA51E4C501B4010E9470330E9447
:1028C00056310E94EA306B017C010E94D02720E043
:1028D00030E04AE754E4C501B4010E9470334B0173
:1028E0005C0182E38C9DB0018D9D700D112480E010
:1028F00090E00E9419319B01AC01C501B4010E9416
:10290000712F0E9456310E94EA30CB010E94950639
:10291000C114D10409F485C10E94E32581E0C81ADD
:10292000D10880914D0181117CC19FEFA0E7B2E0F9
:102930009150A040B040E1F700C00000E9CFC501D0
:10294000B4010E945334023011F0043151F40E945A
:10295000E3307B01E1E0EE1AF108F6E0EF16F10456
:1029600010F083E005C0111106C0023021F486E0AA
:1029700080937907FEC0043181F465E877E08E2DFD
:102980000E94AC208091950790E08E159F0509F07C
:10299000F0C08CE0E5E8F7E03FC0BE016F5F7F4F1D
:1029A0008E2D0E94B520882309F439C120E030E043
:1029B00080E090E0412F50E0BA01082E02C07595EA
:1029C00067950A94E2F760FF11C0F101E20FF31F6F
:1029D00080809180A280B380E1E0F0E0EC0FFD1FE9
:1029E000E20FF31F80829182A282B38201962C5F54
:1029F0003F4F8330910501F7BE016F5F7F4F8E2DF2
:102A00000E94AC208091950790E08E159F0509F0FB
:102A1000B0C08CE0FE013196A6E9B7E0A6C0112354
:102A200009F479C000917D077E0129E1E20EF11CD5
:102A300065E8C62E67E0D62EA12CB12C812E912CF4
:102A4000C4010A2C02C0959587950A94E2F780FF8D
:102A500033C00023F9F0D6015D962D913D914D9143
:102A60005C91909751966D917D918D919C91549729
:102A70000E94722F9B01AC01F701608171818281FC
:102A800093810E94722FD7016D937D938D939C93B8
:102A900013971CC0F6012081318142815381D701F7
:102AA0006D917D918D919C910E94722FF7016083B1
:102AB0007183828393830AC0F60180819181A28110
:102AC000B381F70180839183A283B383FFEFAF1AB1
:102AD000BF0A24E0E20EF11C34E0C30ED11C43E037
:102AE000A416B10409F0ACCFA0902901B0902A013E
:102AF000C0902B01D0902C01E9A0FAA00BA11CA141
:102B00002D8D3E8D4F8D58A1698D7A8D8B8D9C8D2D
:102B1000812C0E94B8065BA5553011F487E001C0F6
:102B200086E0BE016F5F7F4F0E94B520882309F4C5
:102B300076C0A0902901B0902A01C0902B01D090BE
:102B40002C01E984FA840B851C852D813E814F81FF
:102B5000588569817A818B819C81812C0E94B8067D
:102B60008CE0FE013196A5E8B7E001900D928A95C0
:102B7000E1F710E056C08BA5863011F487E001C064
:102B800086E065E877E00E94AC204BC0112309F491
:102B9000EECE55E8E52E57E0F52E5E0199E1A90E3F
:102BA000B11CC12CD12C812E912CC4010C2C02C043
:102BB000959587950A94E2F780FF1BC0D70151963F
:102BC0002D913D914D915C9154976D917D918D9199
:102BD0009C910E94712FF5012081318142815381A6
:102BE0000E94712FD7015D966D937D938D939C9379
:102BF0009097BFEFCB1ADB0AE4E0EE0EF11CF4E095
:102C0000AF0EB11C23E0C216D10479F6B2CF8CE02E
:102C1000E2EAF7E0DF011D928A95E9F702C08AE057
:102C200058C742FC03C0112309F497C3B0917B0736
:102C3000BBA7BB23D1F020E030E0A9016CAD7DAD96
:102C40008EAD9FAD0E94673087FF0FC080917A07DD
:102C5000843071F086E080937907772009F491C37E
:102C600080917A07823030F408C07110F9CF05C026
:102C7000772019F086E08093790780917907811198
:102C800028C700917D077E01E9E1EE0EF11C45E8C1
:102C9000C42E47E0D42EA12CB12C812E912CC4013E
:102CA0000A2C02C0959587950A94E2F780FF35C0FB
:102CB00071103DC00023F9F0D6015D962D913D9134
:102CC0004D915C91909751966D917D918D919C91D4
:102CD00054970E94722F9B01AC01F70160817181B2
:102CE000828193810E94722FD7016D937D938D9382
:102CF0009C9313971CC0F60120813181428153813E
:102D0000D7016D917D918D919C910E94722FF70159
:102D100060837183828393830AC0F60180819181ED
:102D2000A281B381F70180839183A283B383FFEFF4
:102D3000AF1ABF0A24E0E20EF11C34E0C30ED11C2E
:102D400043E0A416B10409F0AACF50917A075CAB16
:102D5000543040F4523008F04CC0552371F05130DB
:102D600021F1EEC28CA9843009F0EAC2112309F4E2
:102D7000E7C286E080937907E3C21123D1F3A090E4
:102D80002901B0902A01C0902B01D0902C01E9A01C
:102D9000FAA00BA11CA12D8D3E8D4F8D58A1698DE0
:102DA0007A8D8B8D9C8D812CC9C2112311F39BA52B
:102DB000911109C0B0918107A0918207F09183071A
:102DC000E091840704C0BCADADADFEADEFADE9A0B0
:102DD000FAA00BA11CA12D8D3E8D4F8D58A1698DA0
:102DE0007A8D8B8D9C8D8BA4AB2EBA2ECF2EDE2EA2
:102DF000A5C2A0919407A8ABEA2FF0E06096FFAFC0
:102E0000EEAF609781E090E001C0880FAA95EAF7E5
:102E10008095182309F4ADCF20E030E0A9016CA51E
:102E20007DA58EA59FA50E94673010919207009105
:102E30009307811182C420E030E0A901E1E0F0E0D5
:102E4000EC0FFD1F84E0189FE00DF11D1124648537
:102E50007585868597850E94673081116EC420E054
:102E600030E0A901E1E0F0E0EC0FFD1F94E0099FE4
:102E7000E00DF11D112464857585868597850E9476
:102E80006730882309F475CF58C4C701B6010E9482
:102E90000F346B017C01A3019201C501B4010E94B2
:102EA0009C329B01AC01C701B60190580E94713061
:102EB0006B017C01BCA9B33021F4F7FAF094F7F868
:102EC000F09420E030E0A9016CA57DA58EA59FA51A
:102ED0000E94673087FF0DC0F7FAF094F7F8F0947E
:102EE0002CA53DA54EA55FA550582CA73DA74EA7E4
:102EF0005FA741E050E04C0F5D1F040F151FA701B5
:102F00009601C301B2010E9470339B01AC01C5015F
:102F1000B4010E94712F20E030E040E05FE30E94A6
:102F20007033D8011C966D937D938D939C931F975E
:102F300001E010E00C0F1D1F020D131DA7019601EB
:102F4000C501B4010E9470339B01AC01C301B20101
:102F50000E94722F20E030E040E05FE30E94703377
:102F6000F80164877587868797879BA591110CC0A8
:102F7000A0918107ACAFB0918207BDAFE09183070C
:102F8000EEAFF0918407FFAF2091930728AF309107
:102F9000920721963FAF219744E0349F800111248E
:102FA0008DE090E08C0F9D1F800F911F62969FAF68
:102FB0008EAF6297DC018D909D90AD90BC90F80132
:102FC000EB57F84F2081318142815381C501B40113
:102FD0000E94722F66966CAF7DAF8EAF9FAF6697E3
:102FE000E8ADB4E0EB9F100111242DE030E02C0F90
:102FF0003D1F220D331D68963FAF2EAF6897D90154
:10300000CD90DD90ED90FC90F101EB57F84F2081D1
:10301000318142815381C701B6010E94722F6C96A3
:103020006CAF7DAF8EAF9FAF6C97E8A9B4E0EB9F1C
:10303000C0011124FC01EB57F84F208131814281FE
:1030400053812A962CAF3DAF4EAF5FAF2A97E9E18F
:10305000F0E0EC0FFD1FE80FF91F608171818281A4
:1030600093810E94712F2E966CAF7DAF8EAF9FAF74
:103070002E972401350177FA709477F87094D70170
:10308000C601B05888AB99ABAAABBBABE9E1F0E0A5
:10309000EC0FFD1FE00FF11F66962CAD3DAD4EAD60
:1030A0005FAD669760817181828193810E94712FEB
:1030B0006B017C01E9E1F0E0EC0FFD1FE20DF31D77
:1030C0006C962CAD3DAD4EAD5FAD6C97608171815E
:1030D000828193810E94712F4B015C01A7019601AF
:1030E000C301B2010E94703326966CAF7DAF8EAFE4
:1030F0009FAF2697A501940168A979A98AA99BA9E0
:103100000E9470339B01AC0126966CAD7DAD8EADF7
:103110009FAD26970E94722F26966CAF7DAF8EAF23
:103120009FAF2697A5019401C301B2010E9470339D
:103130004B015C01A701960168A979A98AA99BA9FD
:103140000E9470339B01AC01C501B4010E94712F34
:1031500026962CAD3DAD4EAD5FAD26970E94F12F6A
:103160006B017C019CA920E030E0A901923009F0BC
:103170008EC3C701B6010E94893287FD0AC02BEDBC
:103180003FE049EC50E4C701B6010E94712F6B018A
:103190007C012CA53DA54EA55FA5C701B6010E94E7
:1031A00070332E962CAD3DAD4EAD5FAD2E975F7753
:1031B0000E949C324B015C0120E030E0A9010E949A
:1031C0006730882309F4BCC020912E0130912F0173
:1031D0004091300150913101C501B4010E9471301C
:1031E0000E9456310E94EA3024967FAF6EAF24973A
:1031F0004B01A12CB12CABA5AA2381F0C501B401D0
:103200000E9419319B01AC016CAD7DAD8EAD9FADBF
:103210000E9470336CAF7DAF8EAF9FAFC501B4011C
:103220000E9419314B015C019B01AC01C701B60141
:103230000E9471306CA77DA78EA79FA7A50194015E
:103240002E966CAD7DAD8EAD9FAD2E970E947130E8
:103250002E966CAF7DAF8EAF9FAF2E9720E030E003
:1032600040E05FE36CA57DA58EA59FA50E9470330D
:103270002CA53DA54EA55FA50E9470339B01AC0116
:1032800060E070E080E89FE30E94712F6CAB7DAB43
:103290008EAB9FAB6096EEADFFAD6097EE0FFF1F5C
:1032A000EE0FFF1F21E030E02C0F3D1FE20FF31F58
:1032B0002A968CAD9DADAEADBFAD2A97808391832C
:1032C000A283B383912C22242394312CD9012196FB
:1032D0003FAD219724E0329FA00DB11D1124289607
:1032E000BFAFAEAF289741E050E04C0F5D1F98ADE7
:1032F00084E0989F400D511D112460965FAF4EAF42
:1033000060972296FFAFEEAF22972496EEADFFAD09
:1033100024972E163F0608F4CAC2E9A0FAA00BA112
:103320001CA12D8D3E8D4F8D58A1698D7A8D8B8D71
:103330009C8D8BA4ACACBDACCEACDFAC0E94B8060F
:10334000809179078111C5C38CE0FE017996A5E8CB
:10335000B7E001900D928A95E1F780917E0788236E
:1033600069F00E94D02710925C0180917E07823024
:1033700019F40E94A00602C010927E07809179077E
:10338000A8C386E0A6C38CE0A4C38531910571F57E
:1033900010E010927C070AC0823091050CF049C001
:1033A000892B09F042C010E010927A0711110DC06C
:1033B0006EC811E08531910561F30CF023C18430B2
:1033C000910509F0F6C031E03BA7C60102C0880FA5
:1033D000991F1A95E2F79C0124213521232B19F01E
:1033E0006092790754C8482A592A51C886319105F4
:1033F0000CF059C08430910519F441E04BA747C83F
:10340000853091051CF58130910531F610E000936F
:103410007A07CCCF863391050CF082C08C319105B0
:1034200009F454C04E9709F451C010E0E0927907B6
:10343000BDCF8230910521F410E0F0927A07B6CF2B
:10344000039799F710E0E0927A07B0CF82319105A7
:1034500041F410E010929207F092930700939407C2
:10346000A5CF8331910574F48A30910509F42AC3FC
:103470004197D9F610E01092920700939307F092CB
:10348000940794CF8331910541F410E000939207A3
:10349000F09293071092940789CF449731F610E089
:1034A00000937C0783CF8035910529F410E094E0E8
:1034B00090937A077BCF81359105D4F585339105BB
:1034C00009F0A8CF10E07724739470CF10E020E0CB
:1034D00030E040E251E4C501B4010E9470330E9423
:1034E00053340E94E3306931B1E07B0799F03CF43A
:1034F0006831714009F09ACFF3E0FBA757CF6C32E7
:1035000021E0720751F06D32714009F08FCF86E0F3
:103510008BA74CCF44E04BA749CF55E05BA746CFE4
:10352000CC970CF082CF10E06653609395073ECFA6
:103530008C359105D9F410E020E030E040E251E410
:10354000C501B4010E9470330E9453340E94E330DD
:103550006839A3E07A0739F06939734009F066CF1A
:10356000E8E0EBA723CF27E02BA720CF8D359105EF
:103570007CF48A35910521F410E000937D0716CF85
:103580008B35910509F051CF10E010927D070ECFD9
:103590008D35910521F410E000937B0707CF8E3520
:1035A000910509F042CF10E010927B07FFCE12E0A8
:1035B00001CF853091058CF48130910509F427CF36
:1035C00024F4892B09F4F0CE31CF8230910509F42F
:1035D00034CF039709F437CF29CF8231910509F40D
:1035E00039CF44F48A30910509F470C2419709F447
:1035F00042CF1CCF8331910509F448CF449709F499
:103600004FCF14CF8035910509F451CF8CF4853319
:10361000910509F458CF44F48C31910509F457CF42
:103620004E9709F454CF02CFCC970CF47DCFFECE49
:103630008C35910509F480CF4CF48A35910509F455
:103640009CCF8B35910509F4A0CFF0CE8D35910537
:1036500009F4A2CF8E35910509F4A6CFE7CE15E087
:1036600001C018E08430910521F48FEF80937F072B
:103670009DCE85309105BCF48130910509F4A5CE2D
:1036800034F4892B09F0D2CE00937E078FCE82309E
:10369000910519F4F0927E0789CE039709F0C6CE02
:1036A00000937F0783CE8830910519F4009380073B
:1036B0007DCE8930910534F4059709F0B7CE10928C
:1036C0007F0774CE8930910519F4109280076ECE71
:1036D0004E9701F3ABCE8430910511F410E0C5CFC5
:1036E00085309105ACF48130910511F40C944712AA
:1036F0002CF4892B09F099CE10E0C6CF82309105C9
:1037000011F410E0C7CF039709F08FCE10E0C8CFB7
:103710008830910511F410E0C9CF893091052CF45F
:10372000059709F082CE10E0CACF8930910511F4D7
:1037300010E0CBCF4E9729F378CE20E030E0A901FE
:103740006CA57DA58EA59FA50E946730882309F4EE
:103750007DC0812F90E08C01000F111F000F111F01
:10376000A1E0B0E0AC0FBD1FA00FB11FF801EB57F7
:10377000F84F208131814281538158966D917D911E
:103780008D919C915B970E94712F4B015C01809100
:10379000930790E01C01220C331C220C331CA1E087
:1037A000B0E0AC0FBD1FA20DB31DF101EB57F84FF8
:1037B000208131814281538158966D917D918D9107
:1037C0009C915B970E94712F2B013C01FE013D965D
:1037D0008CE0DF011D928A95E9F720E030E040E8B7
:1037E00050E46CA57DA58EA59FA50E9470332CA5E5
:1037F0003DA54EA55FA50E9470336B017C01A5011C
:103800009401C501B4010E9470339B01AC01C70152
:10381000B6010E94712F6B017C01A3019201C301CB
:10382000B2010E9470339B01AC01C701B6010E9436
:10383000712F6B017C0120E030E0A9010E9467300C
:1038400087FF23CB84E08093790743C1E1E0F0E078
:10385000EC0FFD1F24E0029FE00DF11D11242485D3
:10386000358546855785E1E0F0E0EC0FFD1F84E0EB
:10387000189FE00DF11D1124648575858685978557
:103880000E949C326CA77DA78EA79FA76ECBC70115
:10389000B6010E94673018160CF47BCC2BED3FE08C
:1038A00049EC50E4C701B6010E94722F70CC8091A0
:1038B0004C0190E0292D092C000C330B28173907F7
:1038C000F4F52CA93DA94EA95FA968A979A98AA9EF
:1038D0009BA90E9470336B017C012CA53DA54EA5D0
:1038E0005FA5C301B2010E947033A70196010E9437
:1038F000722F7B018C012CA93DA94EA95FA9C301A0
:10390000B2010E9470332B013C012CA53DA54EA5B0
:103910005FA568A979A98AA99BA90E9470339B0118
:10392000AC01C301B2010E94712F2B013C019394A1
:10393000A701B80148AB59AB6AAB7BAB68C0B1011A
:1039400080E090E00E9419312CA53DA54EA55FA511
:103950000E9470336B017C010E946C3068AB79ABC4
:103960008AAB9BABC701B6010E9401344B015C01DD
:103970006296AEADBFAD6297CD90DD90ED90FC90BC
:10398000F7FAF094F7F8F0946896AEADBFAD68978B
:103990002D913D914D915C9128AF39AF4AAF5BAF0E
:1039A00028A939A94AA95BA9C701B6010E947033A9
:1039B0002B013C01A501940168AD79AD8AAD9BADA9
:1039C0000E9470339B01AC01C301B2010E94722FAF
:1039D0002B013C01A5019401C701B6010E9470337F
:1039E0006B017C0128A939A94AA95BA968AD79AD09
:1039F0008AAD9BAD0E9470339B01AC01C701B6013B
:103A00000E94712F68AB79AB8AAB9BAB912CA30161
:103A1000920166966CAD7DAD8EAD9FAD66970E94AE
:103A2000722F2896EEADFFAD289760837183828355
:103A3000938328A939A94AA95BA96C966CAD7DAD81
:103A40008EAD9FAD6C970E94722F6096AEADBFADEC
:103A500060976D937D938D939C9313972E962CADC9
:103A60003DAD4EAD5FAD2E972296EEADFFAD2297E8
:103A700060817181828193810E94722F2296AEAD06
:103A8000BFAD22976D937D938D939C931397E9849B
:103A9000FA840B851C852D813E814F815885698173
:103AA0007A818B819C818BA4ACACBDACCEACDFACFD
:103AB0000E94B80680914D01811142CCBFEF2B1AB4
:103AC0003B0A23CCF2E0FBA70C94471222E02BA781
:103AD0007CCCC55ADF4F0FB6F894DEBF0FBECDBF0A
:103AE000DF91CF911F910F91FF90EF90DF90CF90DA
:103AF000BF90AF909F908F907F906F905F904F900E
:103B00003F902F900895CF93DF9323E3829FC001CE
:103B10001124EC01DD5F42E350E0BE018EEA97E044
:103B20000E94190B892B59F41092AE0742E350E022
:103B30006EEA77E0CE010E94600B80E001C081E078
:103B4000DF91CF91089580E090E00C945B2F90E09E
:103B5000FC01E558FC4F2491FC01E959FC4F3491DC
:103B6000FC01ED5AFC4FE491EE23B1F1222339F12F
:103B7000233091F038F42130A9F0223001F584B5DA
:103B80008F7D12C0273091F02830A1F02430B9F495
:103B9000809180008F7D03C0809180008F7780931B
:103BA00080000DC084B58F7784BD09C08091B000BE
:103BB0008F7703C08091B0008F7D8093B000F0E0DC
:103BC000EE0FFF1FE75BFC4FA591B4918FB7F89400
:103BD000EC913E2B3C938FBF08951F920F920FB62E
:103BE0000F9211242F933F938F939F93AF93BF9383
:103BF0008091620190916301A0916401B09165018F
:103C00003091610123E0230F2D3720F40196A11D8F
:103C1000B11D05C026E8230F0296A11DB11D2093FA
:103C200061018093620190936301A0936401B0935A
:103C3000650180915D0190915E01A0915F01B0915D
:103C400060010196A11DB11D80935D0190935E01FD
:103C5000A0935F01B0936001BF91AF919F918F914D
:103C60003F912F910F900FBE0F901F901895CF93FB
:103C70008091840290918502981791F0C0918402FE
:103C8000EC2FF0E0EC5FFD4F60818DED96E00E943F
:103C9000FA2881E08C0F803809F480E08093840258
:103CA000CF9108954F925F926F927F92AF92BF92A1
:103CB000CF92DF92EF92FF920F931F93CF93DF93F8
:103CC0008C01EB01FC01458856886788708CAD88B3
:103CD000BE88CF88D88C9501A601C301B2010E948D
:103CE000673087FF42C0A3019201C301B2010E9465
:103CF00070332B013C018091320190913301A091EE
:103D00003401B0913501BC01CD0190589B01AC014B
:103D10000E94722FF801258D368D478D50A10E948B
:103D200070339B01AC01C301B2010E94712F0E944C
:103D30000F347B018C019B01AC01B501C6010E94CF
:103D4000673087FF02C0750186019701A801B501A0
:103D5000C6010E946730882341F0A701B8014D8B4E
:103D60005E8B6F8B788F81E089A3DF91CF911F915C
:103D70000F91FF90EF90DF90CF90BF90AF907F902A
:103D80006F905F904F9008952F923F924F925F9265
:103D90006F927F928F929F92AF92BF92CF92DF925B
:103DA000EF92FF920F931F93CF93DF93CDB7DEB7C0
:103DB00060970FB6F894DEBF0FBECDBF1C012A017D
:103DC0003B0148015901FC0167A970AD81AD92AD7D
:103DD0000E9419316B017C01A30192010E94703392
:103DE0000E9450300E94EA302B013C01F10163A394
:103DF00074A385A396A3A5019401C701B6010E94EF
:103E000070330E9450300E94EA304B015C01F10196
:103E100067A370A781A792A723A534A545A556A59A
:103E2000A2E3B0E00E94A1340E941B3120E030E008
:103E300040E752E40E9470330E94E33069837A8342
:103E40008B839C830E941B316D837E838F83988735
:103E5000C301B2010E9419312B013C01A701960157
:103E6000C701B6010E9470336B017C01A30192016E
:103E7000C301B2010E94703369877A878B879C8760
:103E80002D813E814F815885CA01B9010E94722F50
:103E90006D877E878F87988B29853A854B855C85D2
:103EA000C701B6010E94712F2D853E854F85588927
:103EB0000E9471300E9450300E94E3302B013C017F
:103EC000C501B4010E9419319B01AC010E947033FD
:103ED0004B015C01A70196010E94712F6B017C01CF
:103EE00069817A818B819C8190958095709561958F
:103EF0007F4F8F4F9F4F0E941B319B01AC010E944F
:103F0000722F9B01AC01C701B6010E9471300E9463
:103F10005631F101C584D684E784F088A701960163
:103F2000241935094609570929833A834B835C8351
:103F30000E94E33029813A814B815C81261B370B3B
:103F4000480B590BDA01C90157FF3DC0C701B60143
:103F50000E941B319B01AC016D857E858F85988900
:103F60000E94703329853A854B855C850E94712FAC
:103F7000A50194010E94722F4B015C0120E030E00A
:103F800040E850E46D817E818F8198850E94703376
:103F90009B01AC01C501B4010E9471300E945030F8
:103FA0000E94E33097FF03C060E070E0CB012B017B
:103FB0003C01C616D706E806F90614F426013701B7
:103FC00080E090E0DC01F10147A650AA61AA72AA44
:103FD000480E591E6A1E7B1E43AA54AA65AA76AAD9
:103FE00060960FB6F894DEBF0FBECDBFDF91CF91C4
:103FF0001F910F91FF90EF90DF90CF90BF90AF9007
:104000009F908F907F906F905F904F903F902F90F8
:10401000089565E080E090E00E94632F46E350E061
:1040200067E171E081E090E00C94600B882309F473
:104030005AC080E090E0AAE7B3E480931701909320
:104040001801A0931901B0931A0180931B0190935A
:104050001C01A0931D01B0931E0180931F0190933A
:104060002001A0932101B09322012AE02093240192
:104070008093250190932601A0932701B0932801F6
:1040800080E090E0AAEFB3E48093290190932A01A5
:10409000A0932B01B0932C0180E090EAACE0B7E450
:1040A0008093320190933301A0933401B093350192
:1040B0008DEC9CECACECBDE380932E0190932F0132
:1040C000A0933001B093310180EC80932D018DECF1
:1040D0009CECACE4BDE38093360190933701A09350
:1040E0003801B093390182E080933A0110923B018C
:1040F00080E090E0A8ECB1E480933C0190933D0116
:10410000A0933E01B0933F0180E090E0AAE7B3E4C2
:104110008093400190934101A0934201B0934301E9
:1041200084E690E0909345018093440180E090E024
:10413000A0E8BFE38093460190934701A093480114
:10414000B093490189E180934A0193E090934B0138
:1041500080934C010C9409202DE0829FC001112412
:104160004CE050E09E5F0C94600B1F93CF93DF9365
:10417000182FEB018DE0189FB00111247E5F4CE0F9
:1041800050E0CE010E94190B892B59F48CE0FE01FE
:1041900011928A95E9F7BE01812F0E94AC2080E040
:1041A00001C081E0DF91CF911F9108951F920F927E
:1041B0000FB60F9211240F900FBE0F901F901895FD
:1041C0001F920F920FB60F9211248F939F93EF932C
:1041D000FF9380918402E82FF0E0EC5FFD4F908127
:1041E0009093C6008F5F803809F480E0809384024A
:1041F00090918502891305C08091C1008F7D8093C5
:10420000C100FF91EF919F918F910F900FBE0F9082
:104210001F901895E091850291E09E0F903809F467
:1042200090E0F0E0EC5FFD4F80839093850208956D
:104230008DED96E00E94CA28AC019C0133272F33F4
:104240003105F1F054F42831310501F12132310505
:10425000F9F480914F01886016C02034310539F09F
:104260002E373105A9F480914F0182600CC08091F6
:104270004E01811102C089E401C082E40C940A213C
:1042800080914F01816080934F0108950C94A006A6
:10429000E091030291E09E0F903809F490E0809144
:1042A0000202981731F0F0E0EE57FE4F40839093F2
:1042B00003020895EF92FF920F931F93CF93DF9322
:1042C000CDB7DEB728970FB6F894DEBF0FBECDBFCF
:1042D0008E010F5F1F4FF80198E0900F282F21707B
:1042E000219386959E13FACF7E0189E0E80EF11C9A
:1042F000F70182917F01805D0E940A21E016F1069C
:10430000B9F728960FB6F894DEBF0FBECDBFDF9188
:10431000CF911F910F91FF90EF9008951F920F92F0
:104320000FB60F9211242F933F934F935F936F9388
:104330007F938F939F93AF93BF93EF93FF9386B138
:1043400090E08095909587709927892B91F030990E
:1043500003C00E94A0060DC0319904C080914F0196
:10436000886005C0329905C080914F0182608093BA
:104370004F01FF91EF91BF91AF919F918F917F91ED
:104380006F915F914F913F912F910F900FBE0F90C2
:104390001F9018958F929F92AF92BF92CF92DF920B
:1043A000EF92FF920F931F93CF93DF93CDB7DEB7BA
:1043B0002A970FB6F894DEBF0FBECDBF6B017C010C
:1043C00020E030E0A9010E94673087FF07C08DE23E
:1043D0000E940A21F7FAF094F7F8F09400914B014B
:1043E000102F123060F020E030E048EC52E4C701BA
:1043F000B6010E9470336B017C011250F2CF00FFB6
:104400000AC020E030E040E251E4C701B6010E945A
:1044100070336B017C0120E030E040E05FE3C701D6
:10442000B6010E94722F0E94E330E1E0F0E0EC0F51
:10443000FD1FE00FF11D2EE2208310E03AE0832EF5
:10444000912CA12CB12C6115710581059105A9F064
:10445000101301C01F5FEE24E394F12CEC0EFD1E3F
:10446000E10EF11CA50194010E947934605DF70111
:104470006083B901CA011F5FE6CF80E3101748F4DB
:10448000E1E0F0E0EC0FFD1FE10FF11D80831F5F05
:10449000F5CF10130BC012E0100F0F5FE1E0F0E05A
:1044A000EC0FFD1FE00FF11D80E38083112341F02D
:1044B000FE01E10FF11D80810E940A211150F6CF0B
:1044C0002A960FB6F894DEBF0FBECDBFDF91CF9115
:1044D0001F910F91FF90EF90DF90CF90BF90AF9022
:1044E0009F908F9008958F929F92AF92BF92CF929C
:1044F000DF92EF92FF92CF93DF93CDB7DEB72A978B
:104500000FB6F894DEBF0FBECDBF6B017C0197FFE5
:104510000BC08DE20E940A21F094E094D094C094E4
:10452000C11CD11CE11CF11CC701B601CD28CE284D
:10453000CF2899F480E32A960FB6F894DEBF0FBE19
:10454000CDBFDF91CF91FF90EF90DF90CF90BF90E4
:10455000AF909F908F900C940A2130E04AE0842E17
:10456000912CA12CB12CFF24F394F30ECC24C394F2
:10457000D12CCC0EDD1EC30ED11CA50194010E94CE
:104580007934605DF6016083B901CA013F2D611580
:1045900071058105910539F7FF2041F0FE01EF0D0E
:1045A000F11D80810E940A21FA94F6CF2A960FB657
:1045B000F894DEBF0FBECDBFDF91CF91FF90EF909B
:1045C000DF90CF90BF90AF909F908F900895CF9342
:1045D000DF93FC018491EF012196882321F00E9452
:1045E0000A21FE01F7CFDF91CF910895CF93C82F15
:1045F00081EC97E00E94E7228C2F90E0FC0131973C
:10460000EC30F10548F5E159FF4F0C949B348FEAEB
:1046100097E020C087E997E01DC081E897E01AC0C5
:1046200082E797E017C08CE597E014C08AE497E032
:1046300011C089E397E00EC08DE297E00BC08EE1D8
:1046400097E008C08DEF96E005C08EEE96E002C0C0
:1046500083EE96E00E94E72280EE96E0CF910C94E4
:10466000E722CF93DF938CED96E00E94E722C7E12B
:10467000D1E0688179818A819B810E94CA2189EC7D
:1046800096E00E94E7226C817D818E819F810E944D
:10469000CA2186EB96E00E94E722688579858A85A3
:1046A0009B850E94CA2183EA96E00E94E7226D85DD
:1046B00070E080E090E00E9473228AE896E00E9419
:1046C000E7226E857F85888999890E94CA218DE6B7
:1046D00096E00E94E7226A897B898C899D890E94E5
:1046E000CA2180E596E00E94E7226E8970E080E0B2
:1046F00090E00E94732282E396E00E94E7228E8976
:104700000E945A218BE296E00E94E7226BA970E09A
:1047100080E090E00E9473228DE096E00E94E72204
:1047200020E030E041E655E46B8D7C8D8D8D9E8DD3
:104730000E9471300E94CA218EEE95E00E94E7220D
:104740006F8D78A189A19AA10E94CA218EEC95E073
:104750000E94E7226F89788D898D9A8D0E94CA21E7
:1047600085EB95E00E94E7226DA970E080E090E083
:104770000E94732286E995E00E94E7226CA970E00E
:1047800080E090E00E9473228DE795E00E94E7228E
:104790006BA1617070E080E090E00E94732280E67F
:1047A00095E00E94E7226BA16695617070E080E061
:1047B00090E00E94732286E495E00E94E7226BA1BC
:1047C00062FB662760F970E080E090E00E9473224F
:1047D00084E295E00E94E7226BA163FB662760F903
:1047E00070E080E090E00E94732289E095E00E94F2
:1047F000E7226BA16295617070E080E090E00E941A
:1048000073228DEE94E00E94E7226CA170E080E0BC
:1048100090E00E9473228EEC94E00E94E7228CA12B
:104820000E945A2186EC94E00E94E7226DA17EA1AD
:104830008FA198A50E94CA2189EA94E00E94E722EC
:1048400069A57AA58BA59CA50E94CA218CE894E055
:104850000E94E7226DA57EA580E090E00E94732271
:104860008DE694E00E94E7226FA578A989A99AA90C
:104870000E94CA2184E594E0DF91CF910C94E72255
:104880000F931F93CF93C0E08C2F0E94831D811143
:1048900002C08AE017C08091AE078823A9F00EEA13
:1048A00017E0F80181918F01882319F00E940A21F5
:1048B000F8CF0E940612811105C08FE893E00E9494
:1048C000E72202C00E94F622C13011F0C1E0DCCF25
:1048D000CF911F910F9108954F925F926F927F92A7
:1048E0008F929F92AF92BF92CF92DF92EF92FF9200
:1048F0000F931F93CF93DF93F090AC06C0E0D0E00E
:104900008BE3E82E8091AD06F81609F440C08F2D98
:1049100090E0E89E9001E99E300D1124A9014A57CC
:104920005D4F6A01209761F129A1211104C0FA01AC
:1049300021A1222329F189889A88AB88BC88E89E26
:10494000F001E99EF00D1124EA57FD4FA5019401F5
:10495000658976898789908D0E9471302B013C0191
:10496000A50194016D897E898F89988D0E9471308F
:10497000AB01BC0193018201CE010E94C41E19A2A9
:10498000F394F2E1FF1201C0F12CE601BBCFC9881C
:10499000DA88EB88FC88A701960160E070E0CB0123
:1049A0000E9471304B015C01A70196016D897E89DF
:1049B0008F89988D0E947130AB01BC0195018401F3
:1049C000CE010E94C41E19A2DF91CF911F910F91B9
:1049D000FF90EF90DF90CF90BF90AF909F908F901F
:1049E0007F906F905F904F900895EF92FF920F939A
:1049F0001F93CF93DF93C091AC0610E0D0E080E02E
:104A000090E00BE32091AD06C217D1F00C9F90010E
:104A10001124A9014A575D4F7A01009741F0FC012A
:104A200022A1211104C0612F7D2F0E94521ECF5F51
:104A3000C23109F4C0E0812F9D2F1E2DDF2DE2CF62
:104A4000009771F0FC0122A121110AC0612F7D2F76
:104A5000DF91CF911F910F91FF90EF900C94521E18
:104A6000DF91CF911F910F91FF90EF9008952F92BA
:104A70003F924F925F926F927F928F929F92AF92EE
:104A8000BF92CF92DF92EF92FF920F931F93CF933B
:104A9000DF931091AD064090320150903301609049
:104AA00034017090350177FA709477F87094A12CE6
:104AB000B12CC0E0D0E0CC24C3948091AC06181790
:104AC00009F46EC0111101C012E111502BE3219FB6
:104AD000C0011124FC01EA57FD4F1F01209709F482
:104AE0005CC0A114B10409F458C0D98CEA8CFB8CC9
:104AF0000C8D2D2D3E2D4F2D502F6D897E898F8948
:104B0000988D0E946730882309F447C08AA18111DB
:104B10003BC0F50185889688A788B08CA5019401D3
:104B20006D2D7E2D8F2D902F0E948932181664F5E1
:104B3000A5019401C501B4010E9470334B015C01D1
:104B4000A3019201C301B2010E94722F2D8D3E8DEF
:104B50004F8D58A10E9470339B01AC01C501B40177
:104B60000E94712F0E940F344B015C019B01AC012C
:104B70006D2D7E2D8F2D902F0E94673087FD04C0F4
:104B8000D82CE92CFA2C0B2D8D2D9E2DAF2DB02F6E
:104B90008D8B9E8BAF8BB88FC9A25E01E1018DCF4B
:104BA000DF91CF911F910F91FF90EF90DF90CF9009
:104BB000BF90AF909F908F907F906F905F904F903D
:104BC0003F902F9008955F926F927F928F929F9265
:104BD000AF92BF92CF92DF92EF92FF920F931F930B
:104BE000CF93DF93CDB7DEB76C970FB6F894DEBFE7
:104BF0000FBECDBF80914F01882309F4BBC15090F7
:104C00004F01852D8076F1F186E080934E018CE492
:104C100094E056FE24C00E94E72281E494E00E94C2
:104C2000E72284E294E00E94E72284EF91E00E9470
:104C3000950682E294E00E94E72280E194E00E94DF
:104C4000E72285ED93E00E94E72280914F018F7E5D
:104C500080934F0180914F0184FFFCCF0EC00E94D2
:104C6000E7228EE294E00E94E72284E294E00E9430
:104C7000E72284EF91E00E94950680914F018F79A1
:104C800080934F0154FE04C081E080934D0172C1B6
:104C900050FECFC08CE0E0E5F1E0DE011D96019012
:104CA0000D928A95E1F7E0914E018E2F90E08830C9
:104CB0009105D8F4FC01E558FF4F0C949B348FEC20
:104CC00093E011C088EC93E00EC083EC93E00BC03E
:104CD0008DEB93E008C087EB93E005C080EB93E099
:104CE00002C089EA93E00E94E72282EA93E00E94F0
:104CF000E7226E018DE0C80ED11C97E1A92E91E04C
:104D0000B92E8E010F5F1F4F4E01E9E18E0E911CEF
:104D10007801F60161917191819191916F01F50195
:104D200021913191419151915F01298F3A8F4B8FA0
:104D30005C8F0E941B31298D3A8D4B8D5C8D0E94BA
:104D400071303701F70160837183828393832091EF
:104D50003A0120FF0BC02BE832E441E25DE30E9400
:104D60007033F7016083718382839383F4E0EF0EE5
:104D7000F11CF30160817181828193810E94CA21BB
:104D800080EA93E00E94E722C814D90411F68AE968
:104D900093E00E94E72286E9E82E87E0F82ED12CE6
:104DA00080913A01F701248535854685578580FF36
:104DB0000DC060817181828193810E94722F2BE8E6
:104DC00032E441E25DE30E94703306C0608171818C
:104DD000828193810E94722F9B01AC01F801608156
:104DE0007181828193810E94712FF80160837183A8
:104DF00082839383F80161917191819191918F01E7
:104E00000E94CA21F2E0DF1621F088E993E00E94B7
:104E1000E722D39484E0E80EF11CE3E0DE12C0CF79
:104E200084E993E00E94E72280914F018E7F809376
:104E30004F0153FE0EC080914E01833029F484E06F
:104E400080934E0110925C0180914F01877F809387
:104E50004F0152FE7FC0E091AE06F091AF06309751
:104E600009F471C0C584D684E784F0888091C106B6
:104E70009091C206A091C306B091C406C81AD90A7F
:104E8000EA0AFB0A0091AC06FBE30F9F80011124A4
:104E90000A571D4FC701B6010E941B31F801258D2D
:104EA000368D478D50A10E9470334B015C01F80193
:104EB00065857685878590890E941B319B01AC01B1
:104EC000C501B4010E947130F801658F768F878F1C
:104ED00090A3C586D686E786F08A158A168A178A31
:104EE000108E118E128E138E148E12A281E081A369
:104EF0000E9437250E94F5240E946C241092CD0652
:104F00001092CE061092CF061092D00660E070E0AC
:104F1000CB010E946F2A80E091E7A2E0B0E080938D
:104F2000C9069093CA06A093CB06B093CC06109204
:104F3000C1061092C2061092C3061092C40682E007
:104F400080934E0102C010924E0180914F018B7FE1
:104F500080934F0151FE0EC00E942A2E80913A018B
:104F600081FF03C081E080935C0180914F018D7FC0
:104F700080934F016C960FB6F894DEBF0FBECDBF85
:104F8000DF91CF911F910F91FF90EF90DF90CF9025
:104F9000BF90AF909F908F907F906F905F9008959B
:104FA000CF93CBE39091AD068091AC06981781F03A
:104FB0008091AC06C89FC00111248A579D4F892B50
:104FC00039F00E94E32580914D01882359F304C0F4
:104FD00080914E018330A9F3CF9108958F929F92D3
:104FE000AF92BF92CF92DF92EF92FF920F931F93F7
:104FF000CF93DF93EDE4F1E0C384D484E584F684B9
:1050000087809084A184B284638174818581968134
:10501000E6E6F1E0608371838283938384829582E4
:10502000A682B782C086D186E286F386C9E7D7E03A
:105030000E941B3107E111E0F8012081318142819A
:1050400053810E9471306C877D878E879F87C50151
:10505000B4010E941B31F8012481358146815781BA
:105060000E947130688B798B8A8B9B8BC701B6014C
:105070000E941B31F80120853185428553850E94AD
:1050800071306C8B7D8B8E8B9F8BDF91CF911F91BD
:105090000F91FF90EF90DF90CF90BF90AF909F90D7
:1050A0008F90089585ED8093BC008091BC0084FDB5
:1050B000FCCF1092ED06089540913207262F30E084
:1050C000240F311D21323105DCF42091ED0624300E
:1050D000C9F4FC0180E090E0861758F43091320763
:1050E0002191DC01AE5EB84FA30FB11D2C93019648
:1050F000F3CF80913207680F6093320780E0089504
:1051000081E0089582E00895E091DB06F091DC06ED
:10511000309729F01092DA061092D9060994089572
:10512000CF93DF93AC01E091D706F091D80630978A
:10513000F1F09091D6068091D5069817C0F090E0D6
:10514000292F30E02617370754F4D901AE50B94F54
:10515000EA01C20FD31F88818C939F5FF1CF109219
:10516000D6066093D506CB01DF91CF910994DF91EC
:10517000CF9108950895E091D6068091D506E8175D
:1051800030F4F0E0EE50F94F808190E008958FEF19
:105190009FEF08959091D6068091D506981750F408
:1051A000E92FF0E0EE50F94F208130E09F5F9093BF
:1051B000D60602C02FEF3FEFC90108958091D506B2
:1051C00090E02091D606821B91090895CF93DF933A
:1051D00000D0CDB7DEB7CB01642F49835A830E943C
:1051E0005C284981842F5A81952F0F900F90DF9171
:1051F000CF910895CF93DF931F92CDB7DEB7698328
:1052000061E0CE0101960E945C2881E090E00F9061
:10521000DF91CF910895089580E090E00895409146
:10522000C5065091C6066091C7067091C806809168
:10523000C9069091CA06A091CB06B091CC06840F06
:10524000951FA61FB71F813022EE920724E0A20708
:10525000B10550F48093C9069093CA06A093CB067B
:10526000B093CC0680E00895925EA440B10980938B
:10527000C9069093CA06A093CB06B093CC0681E0F2
:1052800008951F920F920FB60F9211242F933F9300
:105290004F935F936F937F938F939F93AF93BF933E
:1052A000EF93FF938091B900887F803609F49CC00A
:1052B00068F5883209F45BC090F4803109F454C079
:1052C00038F4882309F4F6C0883009F44DC0F6C0DC
:1052D000883109F44CC0803209F45DC0EFC08034DD
:1052E00009F468C048F4803309F455C0883309F0E4
:1052F000E5C080935507D8C0803509F44FC0883584
:1053000009F45DC0883409F0D9C0D6C0883909F4E1
:10531000C7C0A8F4883709F467C038F4883609F4A0
:1053200063C0803709F460C0C9C0883809F4B8C0C8
:10533000803909F45FC0803809F0C0C05BC0803B91
:1053400009F486C038F4803A09F466C0883A09F452
:105350007FC0B4C0803C09F4A7C0883C09F4A4C055
:10536000883B09F48AC0AAC08091780710C0909148
:10537000770780917607981770F5E091770781E0BD
:105380008E0F80937707F0E0EA5AF84F8081809380
:10539000BB0085EC86C0809355078EC0E0917707EF
:1053A00081E08E0F809377078091BB00F0E0EA5A8E
:1053B000F84F808390917707809176076EC0E091D7
:1053C000770781E08E0F809377078091BB00F0E034
:1053D000EA5AF84F80838091EF0681116DC081E019
:1053E0008093EE0684EA61C083E08093ED0610921C
:1053F0005407CFCF80915407803208F051C0E0911C
:10540000540781E08E0F809354078091BB00F0E039
:10541000EC5CF84F8083BDCF85EC8093BC0010928C
:10542000ED0680915407803230F4E0915407F0E0AB
:10543000EC5CF84F10826091540770E0E091EB064D
:10544000F091EC0684E397E009951092540736C07A
:1054500084E08093ED061092330710923207E091BA
:10546000E906F091EA06099580913207811105C09D
:1054700081E08093320710921207E091330781E0B8
:105480008E0F80933307F0E0EE5EF84F80818093BB
:10549000BB009091330780913207981708F479CFB9
:1054A00085E88093BC000AC085EC8093BC00109214
:1054B000ED0604C0109255070E945228FF91EF910B
:1054C000BF91AF919F918F917F916F915F914F911C
:1054D0003F912F910F900FBE0F901F9018959B0139
:1054E000AC01203283E038074105510520F420E269
:1054F00033E040E050E060E070E788E399E30E9429
:1055000079342115310581E04807510518F4B901B6
:1055100091E02FC02115310588E048075105A8F416
:10552000DA01C901F3E0B695A79597958795FA95A5
:10553000D1F7BC019C01AD01A3E0220F331F441F32
:10554000551FAA95D1F792E014C0DA01C90126E0EF
:10555000B695A795979587952A95D1F7BC019C019B
:10556000AD01E6E0220F331F441F551FEA95D1F726
:1055700093E080918100887F892B809381007093D4
:105580008900609388002093C5063093C606409337
:10559000C7065093C80608951F920F920FB60F9238
:1055A00011248F939F938BB190912D019C71837ED9
:1055B000892B8BB91092B1009F918F910F900FBEE4
:1055C0000F901F90189580916F008D7F80936F00D2
:1055D00080914A018F3F21F490914F0195FF0895EA
:1055E00090E00E94950680913A0182FF02C02898BF
:1055F0000895289A08951F920F920FB60F921124C2
:105600000F931F932F933F934F935F936F937F93CA
:105610008F939F93AF93BF93CF93DF93EF93FF93BA
:105620008091B0068111E5C28BB19091F106907E18
:105630008F71892B8BB98BB1837E9091F106892B69
:105640008BB98091F0068093B20082E08093B10024
:1056500081E08093B0067894C091AE06D091AF06F9
:10566000209709F08AC09091AD068091AC069817FA
:1056700041F0C091AC068BE3C89FE0011124CA57EA
:10568000DD4FD093AF06C093AE06209709F46EC0ED
:1056900080914E018330D1F46BA17CA18DA19EA19C
:1056A0006093CD067093CE068093CF069093D0067C
:1056B0000E946F2A80E091E7A2E0B0E08093C906E3
:1056C0009093CA06A093CB06B093CC064BA55CA5DD
:1056D0006DA57EA5DB01CA01B595A7959795879520
:1056E000840F951FA61FB71F8093D1069093D206F3
:1056F000A093D306B093D4064D855E856F857889D7
:10570000DB01CA01B595A79597958795B095A095AA
:10571000909581959F4FAF4FBF4F8093B106909367
:10572000B206A093B306B093B4068093B5069093E7
:10573000B606A093B706B093B8068093B9069093C7
:10574000BA06A093BB06B093BC064093BD06509327
:10575000BE066093BF067093C0061092C1061092F9
:10576000C2061092C3061092C40607C00E94E32A24
:1057700080914F01846080934F01C091AE06D0911B
:10578000AF06209709F42CC228812093F10640919E
:10579000B1065091B2066091B3067091B40689814A
:1057A0009A81AB81BC81840F951FA61FB71F809380
:1057B000B1069093B206A093B306B093B406181640
:1057C00019061A061B068CF5322F34603093F10649
:1057D0004091BD065091BE066091BF067091C00613
:1057E000841B950BA60BB70B8093B1069093B20662
:1057F000A093B306B093B4068091500190915101EB
:10580000A0915201B091530125FF04C00197A10955
:10581000B10903C00196A11DB11D80935001909361
:105820005101A0935201B09353014091B50650919C
:10583000B6066091B7067091B8068D819E81AF81E2
:10584000B885840F951FA61FB71F8093B506909348
:10585000B606A093B706B093B806181619061A062E
:105860001B069CF52091F106322F38603093F1062B
:105870004091BD065091BE066091BF067091C00672
:10588000841B950BA60BB70B8093B5069093B606B9
:10589000A093B706B093B80680915401909155013A
:1058A000A0915601B091570126FF04C00197A109AC
:1058B000B10903C00196A11DB11D809354019093BD
:1058C0005501A0935601B09357014091B9065091EC
:1058D000BA066091BB067091BC0689859A85AB8536
:1058E000BC85840F951FA61FB71F8093B9069093A0
:1058F000BA06A093BB06B093BC06181619061A0682
:105900001B0694F52091F10620612093F106409149
:10591000BD065091BE066091BF067091C006841B03
:10592000950BA60BB70B8093B9069093BA06A0937C
:10593000BB06B093BC068091580190915901A0918B
:105940005A01B0915B0127FF04C00197A109B10979
:1059500003C00196A11DB11D809358019093590178
:10596000A0935A01B0935B018091C1069091C20649
:10597000A091C306B091C4060196A11DB11D8093EC
:10598000C1069093C206A093C306B093C4064D858A
:105990005E856F85788984179507A607B70708F095
:1059A0000DC120914E01243029F50E940F29882332
:1059B00009F416C18091CD069091CE06A091CF0634
:1059C000B091D0060BA51CA52DA53EA5081719075B
:1059D0002A073B0740F00E94E32A80914F01846030
:1059E00080934F01FDC0BC01CD01601B710B820B88
:1059F000930BDBC04FA558A969A97AA9841795070D
:105A0000A607B707C8F50E940F29882309F4E8C044
:105A10004BA55CA56DA57EA58091CD069091CE0687
:105A2000A091CF06B091D006840F951FA61FB71F77
:105A30008093CD069093CE06A093CF06B093D00668
:105A40004FA958AD69AD7AAD84179507A607B7077A
:105A500040F04093CD065093CE066093CF067093EE
:105A6000D0066091CD067091CE068091CF069091C0
:105A7000D0060E946F2AB4C04BA95CA96DA97EA96B
:105A800084179507A607B70708F47EC08417950703
:105A9000A607B70779F54091CD065091CE066091E3
:105AA000CF067091D0068FA998ADA9ADBAAD4817B1
:105AB00059076A077B0729F480E091E7A2E0B0E08C
:105AC00010C04091C9065091CA066091CB067091F2
:105AD000CC0680E092EEA4E0B0E0841B950BA60B10
:105AE000B70B8093C9069093CA06A093CB06B093D8
:105AF000CC0676C00E940F29882309F471C08091DA
:105B0000CD069091CE06A091CF06B091D0064091DF
:105B1000D1065091D2066091D3067091D4064817F1
:105B200059076A077B0748F44BA55CA56DA57EA5C0
:105B3000841B950BA60BB70B04C0B695A79597953C
:105B400087958093CD069093CE06A093CF06B09311
:105B5000D0068FA198A5A9A5BAA54091CD065091D0
:105B6000CE066091CF067091D006481759076A0794
:105B70007B0708F076CF8093CD069093CE06A09356
:105B8000CF06B093D0066DCF6FA978AD89AD9AAD31
:105B90000091CD061091CE062091CF063091D0060F
:105BA0000617170728073907D9F06093CD067093B9
:105BB000CE068093CF069093D0065BCF1092AF06AF
:105BC0001092AE069091AD068091AC06981741F008
:105BD0008091AC068F5F823109F480E08093AC063F
:105BE0009091F10680912D0189278093F106109202
:105BF000B006FF91EF91DF91CF91BF91AF919F914F
:105C00008F917F916F915F914F913F912F911F9154
:105C10000F910F900FBE0F901F90189580913A0131
:105C200082FF02C0289A01C0289880914E018330DB
:105C300081F480912D018093F10680912401880FD9
:105C4000845081958093F00680916F0082608093EC
:105C50006F00089580914E01823029F483E0809393
:105C60004E010C940E2E08958F929F92AF92BF9288
:105C7000CF92DF92EF92FF920F931F93CF93DF9318
:105C80007C016B01DC01EC91F0E0E255F84F908172
:105C9000EF019D3221F42296918101E007C09B32F1
:105CA00011F0219602C02296918100E0912CF0E043
:105CB00010E020E030E0A9015E01E0EDE90FEA30FC
:105CC000D0F4FF5FF93098F491101150A5E0B0E0E6
:105CD0000E94A134DC01CB01880F991FAA1FBB1FB2
:105CE0009C01AD012E0F311D411D511D0AC09110A7
:105CF00008C01F5F06C0EE3F41F4911006C0992412
:105D000093942196D5019C91D7CFFF2309F450C0DD
:105D1000CA01B9010E9419314B015C0120E030E059
:105D2000A9010E946730882349F11F3F64F42AE0EB
:105D300037ED43E25CE3C501B4010E9470334B01CF
:105D40005C011E5FF2CF1F3F59F42DEC3CEC4CEC94
:105D50005DE3C501B4010E9470334B015C010EC0CC
:105D6000112361F020E030E040E251E4C501B401CC
:105D70000E9470334B015C011150F2CF002351F0AF
:105D8000B7FAB094B7F8B094F60180829182A282FB
:105D9000B38206C0D6018D929D92AD92BC921397AC
:105DA000CE5AD740C150F701C08381E090E002C0D5
:105DB00080E090E0DF91CF911F910F91FF90EF90E5
:105DC000DF90CF90BF90AF909F908F900895CF932A
:105DD000DF93DC01EA01E881F0E0E255F84F9081C1
:105DE0009923A1F09C9391549A3120F082E0809302
:105DF00079070CC0CA0128812F5F28830E94342EA6
:105E0000009739F421E02093790705C080E090E005
:105E100002C081E090E0DF91CF910895789484B53D
:105E2000826084BD84B5816084BD85B5826085BD96
:105E300085B5816085BDEEE6F0E08081816080837C
:105E4000E1E8F0E01082808182608083808181605F
:105E50008083E0E8F0E0808181608083E1EBF0E026
:105E6000808184608083E0EBF0E0808181608083CA
:105E7000EAE7F0E0808184608083808182608083B3
:105E80008081816080838081806880831092C100DE
:105E90000E949F0BEDEDF6E01382128288EE93E0F4
:105EA000A0E0B0E084839583A683B78384E091E08B
:105EB000918380830895F999FECF92BD81BDF89AB0
:105EC000992780B50895262FF999FECF1FBA92BD64
:105ED00081BD20BD0FB6F894FA9AF99A0FBE0196CB
:105EE00008955058BB27AA270E94892F0C9423326B
:105EF0000E94EA3138F00E94F13120F039F49F3FDE
:105F000019F426F40C94C0310EF4E095E7FB0C94E0
:105F10009131E92F0E94483258F3BA17620773078C
:105F20008407950720F079F4A6F50C9482320EF4DC
:105F3000E0950B2EBA2FA02D0B01B90190010C0199
:105F4000CA01A0011124FF27591B99F0593F50F4B1
:105F5000503E68F11A16F040A22F232F342F442709
:105F6000585FF3CF469537952795A795F040539501
:105F7000C9F77EF41F16BA0B620B730B840BBAF0D1
:105F80009150A1F0FF0FBB1F661F771F881FC2F73C
:105F90000EC0BA0F621F731F841F48F48795779550
:105FA0006795B795F7959E3F08F0B0CF9395880F0A
:105FB00008F09927EE0F9795879508950E94EA318A
:105FC00060F080E891E009F49EEF0E94F13128F042
:105FD00040E851E071F45EEF0CC00C94C0310C94B9
:105FE0008232E92FE0780E94483240F3092E052AD8
:105FF000B1F3261737074807590738F00E2E07F870
:10600000E02569F0E025E0640AC0EF6307F800943A
:1060100007FADB01B9019D01DC01CA01AD01EF9373
:106020000E9488300E9423320E9421305F915523C4
:1060300039F02BED3FE049E450FD49EC0C94722F10
:106040000895DF93DD27B92FBF7740E85FE3161689
:10605000170648075B0718F4D92F0E94FB329F935D
:106060008F937F936F930E944F34E6E0F1E00E949C
:10607000C3310E9423322F913F914F915F910E9433
:106080008333DD2351F09058A2EA2AED3FE049EC3A
:106090005FE3D0785D270E94892FDF910C94233233
:1060A0000E946A3290F09F3748F4911116F40C94D4
:1060B000833260E070E080E89FE3089526F01B16CD
:1060C000611D711D811D0C9497310C94B2310E9499
:1060D0006D3108F481E008950E94FA31E3950C9443
:1060E00034320E9485300C9423320E94F13158F0F2
:1060F0000E94EA3140F029F45F3F29F00C9491317D
:1061000051110C9483320C94C0310E94483268F3D0
:106110009923B1F3552391F3951B550BBB27AA2760
:1061200062177307840738F09F5F5F4F220F331F9A
:10613000441FAA1FA9F335D00E2E3AF0E0E832D062
:1061400091505040E695001CCAF72BD0FE2F29D065
:10615000660F771F881FBB1F261737074807AB0737
:10616000B0E809F0BB0B802DBF01FF2793585F4FAC
:106170003AF09E3F510578F00C9491310C948332A3
:106180005F3FE4F3983ED4F3869577956795B7958E
:10619000F7959F5FC9F7880F911D9695879597F999
:1061A0000895E1E0660F771F881FBB1F6217730712
:1061B0008407BA0720F0621B730B840BBA0BEE1F27
:1061C00088F7E09508950E94EA306894B1110C9424
:1061D000833208950E94503288F09F5798F0B92F6B
:1061E0009927B751B0F0E1F0660F771F881F991F0C
:1061F0001AF0BA95C9F714C0B13091F00E948232FA
:10620000B1E008950C948232672F782F8827B85F09
:1062100039F0B93FCCF3869577956795B395D9F763
:106220003EF490958095709561957F4F8F4F9F4F6D
:106230000895E89409C097FB3EF490958095709579
:1062400061957F4F8F4F9F4F9923A9F0F92F96E9C2
:10625000BB279395F695879577956795B795F11137
:10626000F8CFFAF4BB0F11F460FF1BC06F5F7F4FD4
:106270008F4F9F4F16C0882311F096E911C07723E6
:1062800021F09EE8872F762F05C0662371F096E8EF
:10629000862F70E060E02AF09A95660F771F881FBE
:1062A000DAF7880F9695879597F908950E946A32D4
:1062B00090F09F3748F4911116F00C94833260E00F
:1062C00070E080E89FEB089526F41B16611D711D98
:1062D000811D0C9497310C94B231990F0008550F21
:1062E000AA0BE0E8FEEF16161706E807F907C0F05C
:1062F00012161306E407F50798F0621B730B840B64
:10630000950B39F40A2661F0232B242B252B21F43D
:1063100008950A2609F4A140A6958FEF811D811DDD
:10632000089597F99F6780E870E060E008958823FA
:1063300071F4772321F09850872B762F07C06623BE
:1063400011F499270DC09051862B70E060E02AF07F
:106350009A95660F771F881FDAF7880F96958795AD
:1063600097F908959F3F31F0915020F487957795E4
:106370006795B795880F911D9695879597F908951C
:106380009FEF80EC0895DF93CF931F930F93FF92BD
:10639000EF92DF927B018C01689406C0DA2EEF0148
:1063A0000E948333FE01E894A59125913591459192
:1063B0005591A6F3EF010E94892FFE019701A801D4
:1063C000DA9469F7DF90EF90FF900F911F91CF91D2
:1063D000DF91089500240A94161617061806090678
:1063E000089500240A94121613061406050608954B
:1063F0000C94C0310E945032D8F3E894E0E0BB27FF
:106400009F57F0F02AED3FE049EC06C0EE0FBB0FBE
:10641000661F771F881F28F0B23A62077307840748
:1064200028F0B25A620B730B840BE3959A9572F7BE
:10643000803830F49A95BB0F661F771F881FD2F7FC
:1064400090480C94B431092E0394000C11F4882365
:1064500052F0BB0F40F4BF2B11F460FF04C06F5F1C
:106460007F4F8F4F9F4F0895EF93E0FF07C0A2EA41
:106470002AED3FE049EC5FEB0E94892F0E94233216
:106480000F90039401FC9058E3E3F1E00C94653421
:1064900057FD9058440F551F59F05F3F71F04795D5
:1064A000880F97FB991F61F09F3F79F087950895BA
:1064B000121613061406551FF2CF4695F1DF08C0D9
:1064C000161617061806991FF1CF869571056105F6
:1064D000089408950E945032A0F0BEE7B91788F4DE
:1064E000BB279F3860F41616B11D672F782F8827B9
:1064F000985FF7CF869577956795B11D93959639F7
:10650000C8F30895E894BB2766277727CB0197F94E
:1065100008950E946D3108F48FEF08950E94EA31CA
:1065200029F00E94F13111F00C94C0310C9491319A
:10653000B901CA010C94B2319F775F770E9448324B
:1065400068F39923A9F35523A9F3FF27951758F466
:10655000E52FE91BED3060F75E3B10F0F1E41CC065
:106560009034E0F40AC0E92FE51BED3018F79E3BAC
:1065700010F0F1E411C0503488F4F9EA88232AF0CD
:106580009A95660F771F881FDAF744232AF05A95E9
:10659000220F331F441FDAF79F1B5F1BFF931F93CC
:1065A0000F93FF92EF9279018A01BB27AB2F9B01DA
:1065B000AC010E9486339701A801BF937B018C0137
:1065C000AA27BA2FB901CA010E948633AF91970159
:1065D000A801EF90FF900F911F910E94892F0E94B8
:1065E00023320E940F344F9140FF0895552747FDF5
:1065F00050950C9407339B01AC0160E070E080E89B
:106600009FE30C9471300C9491310C94B2310E9440
:106610005032D8F39923C9F3940F511DA3F391502D
:10662000504094F059F0882332F0660F771F881F8E
:1066300091505040C1F79E3F51052CF7880F911D96
:106640009695879597F908955F3FACF0983E9CF03A
:10665000BB27869577956795B79508F4B1609395B4
:10666000C1F7BB0F58F711F460FFE8CF6F5F7F4FA2
:106670008F4F9F4FE3CF0C9483320E94503258F1DA
:106680009E5760F19851A0F0E9F0983020F5092E5E
:106690009927660F771F881F991F0A94D1F712C098
:1066A000062E672F782F8827985F11F4000C07C0FB
:1066B000993FB4F38695779567959395D9F7611DC2
:1066C000711D811D3EF490958095709561957F4F69
:1066D0008F4F9F4F089568940C9483320C948232AC
:1066E0000E9483330C9423320E94EA3138F00E94D6
:1066F000F13120F0952311F00C9491310C94C031BC
:1067000011240C9483320E94483270F3959FC1F398
:10671000950F50E0551F629FF001729FBB27F00D4F
:10672000B11D639FAA27F00DB11DAA1F649F6627A4
:10673000B00DA11D661F829F2227B00DA11D621FF3
:10674000739FB00DA11D621F839FA00D611D221FAD
:10675000749F3327A00D611D231F849F600D211D91
:10676000822F762F6A2F11249F5750409AF0F1F014
:1067700088234AF0EE0FFF1FBB1F661F771F881F7D
:1067800091505040A9F79E3F510580F00C949131F3
:106790000C9483325F3FE4F3983ED4F3869577956B
:1067A0006795B795F795E7959F5FC1F7FE2B880F23
:1067B000911D9695879597F908950E945032E8F0BB
:1067C0009E37E8F09639B8F49E3848F4672F782F52
:1067D0008827985FF9CF8695779567959395953932
:1067E000D0F3B62FB1706B0F711D811D20F487950A
:1067F0007795679593950C9497310C94B2310C94DE
:1068000083329F930E94FA310F9007FCEE5F0C9445
:10681000343219F416F40C94C0310C94B2310E9445
:106820005032B8F39923C9F3B6F39F57550B87FF3E
:106830000E945E340024A0E640EA900180585695FC
:10684000979528F4805C660F771F881F20F0261725
:106850003707480730F4621B730B840B202931295A
:106860004A2BA69517940794202531254A2758F7D7
:10687000660F771F881F20F026173707480730F468
:10688000620B730B840B200D311D411DA09581F708
:10689000B901842F9158880F9695879508959B018B
:1068A000AC010C9470330E946A3230F09F3710F4C0
:1068B0000C9483320C9497310C94B2319150504027
:1068C000660F771F881FD2F708959F938F937F934A
:1068D0006F93FF93EF939B01AC010E947033EF9194
:1068E000FF910E94C3312F913F914F915F910C9482
:1068F0007033A1E21A2EAA1BBB1BFD010DC0AA1FFB
:10690000BB1FEE1FFF1FA217B307E407F50720F018
:10691000A21BB30BE40BF50B661F771F881F991F93
:106920001A9469F760957095809590959B01AC01DC
:10693000BD01CF010895EE0FFF1F0590F491E02DEA
:1069400009940E94AC34A59F900DB49F900DA49F14
:10695000800D911D11240895A29FB001B39FC00125
:10696000A39F700D811D1124911DB29F700D811D7B
:106970001124911D089581E090E0F8940C94C034A6
:04698000F894FFCFB9
:1069840000000000FA28E6280C29BA28DE28CA28C4
:02699400BB281E
:00000001FF
